:02000002D0002C
:1040000000400D00D8780D00000006000D000501ED
:084010000401DE0500000000C0
:0440180034740D00EF
:1040200009480A49884208B505D0094A824202D0A7
:10403000121A03F0BBF90748074A0021121A03F0CD
:10404000C0F9014808BD00BF00E4032044780D001A
:104050006CE403206CE40320F0E7032070B501F06A
:1040600065F9074C074BE41AA40800251E46A54233
:1040700004D056F8253098470135F8E770BD00BFE9
:1040800040780D0004780D0000F016B808B500F077
:1040900023F9BDE8084001F00BB900F06BBB00F05C
:1040A00071BB00F06FBB0078B0FA80F04009704738
:1040B000012303707047000008B501F0B5F84FF414
:1040C000165101F0A5F80021042001F07DF900F05F
:1040D000D5F9084B1860084800F043F918B101F011
:1040E000A3F8064902E001F09FF80549BDE8084041
:1040F00000F06BBEA0E4032084E4032048740D00AC
:1041000062740D0038B50446114800F057F91149A2
:104110000546204600F032FF0F4B1B689D4201D13F
:104120000E4910E00E4B1B689D4201D10D490AE07B
:104130000D4B1B689D4201D10C4904E00C4B1B68E0
:104140009D4203D10B49204600F02BFF204638BD8D
:1041500084E403207C740D00F8740D0081740D005C
:10416000F4740D0088740D00EC740D0097740D004C
:10417000F0740D00A5740D002DE9F0472DED028BB4
:104180004D4C4E4B226884B012B91B68236000E08E
:104190001A6020684A4DDFF83CA102F083FD3CA381
:1041A000D3E9002302F01EFF03F0A2F8286002F01A
:1041B0009BFD9FED391B41EC100B01F0F9FA95EDD9
:1041C000008A18EE100A8DED020B02F08DFD9DEDB8
:1041D000020B8046894632A3D3E9002351EC100B31
:1041E00002F0D6FD424606460F464B46404649463B
:1041F00002F0CEFD2CA3D3E9002302F0C9FD024654
:104200000B463046394602F00FFCDFED2E7A68EEA1
:10421000277A064617EE900A0F4602F065FD024621
:104220000B463046394602F001FC21A3D3E90023B6
:1042300002F0FCFB03F05CF8CAF8000000F0F4FFA9
:104240002368214A012100F0EAFD00F0EDFF044659
:10425000286802F049FD1D4ACDE9000101212046F0
:1042600000F0DDFD00F0E0FF0446DAF8000002F0A7
:104270003BFD174ACDE900010121204600F0CFFDAA
:1042800004B0BDEC028BBDE8F08700BFAFF3008047
:1042900000000000804F12410000000000000840B4
:1042A0009A9999999999F13F6666666666660E4095
:1042B000D7A3703D0AD7E33F74E403207CE40320D6
:1042C00080E4032000000244AF740D00B7740D00B9
:1042D000C3740D0070E4032030B5002185B00420C4
:1042E00001F09AF8124C134B134D186023681844D0
:1042F000206000F0C3F82B68C01A47F23053984290
:1043000013D96846FFF7FEFE00F08EFF009B0B4AB4
:10431000012100F084FDFFF72FFF0023236000F050
:10432000ADF82860684600F0E2FD05B030BD00BF82
:1043300074E4032078E40320A0E40320DB740D0080
:1043400008B500F0A3F811210248BDE8084000F0CC
:1043500003B800BF84E403200022016002614261CF
:10436000704710B50446008801F03FF840F2123360
:10437000A0F10B029A4207D8A0606060E06000F0F4
:104380007DF8A061012010BD002010BD10B50446CD
:1043900000F074F8A369C01A074B98420AD9236940
:1043A000626993FBF2F3E36000F068F80023A06118
:1043B0002361636110BD00BF20A1070010B58368B1
:1043C00043600446008801F010F82369A060184497
:1043D00063692061013363612046FFF7D7FFA2685C
:1043E0006168511AB1F5C87F10DCB2F52F7F0DDC82
:1043F000E368D31A962B0BDCC82902DDB2F52F7FB8
:1044000008D1322BCCBF0220032010BD002010BDEC
:10441000012010BD022010BD00F038B808B5024BD5
:104420001B689B68019308BD4802030008B5024B56
:104430001B681B69019308BD4802030008B5024BC5
:104440001B685B69019308BD4802030008B5024B75
:104450001B685B6C019308BD4802030008B5024B62
:104460001B689B6C019308BD4802030008B5024B12
:104470001B685B68019308BD1802030008B5024B76
:104480001B685B69019308BD1802030008B5024B65
:104490001B681B68019308BD2C02030008B5024B82
:1044A0001B685B68019308BD2C02030008B5024B32
:1044B0001B689B68019308BD2C02030008B5024BE2
:1044C0001B681B6B019308BD2C02030008B5024B4F
:1044D0001B68DB6C019308BD2C02030008B5024B7E
:1044E0001B681B6A019308BD2802030008B5024B34
:1044F0001B685B6A019308BD2802030008B5024BE4
:104500001B689B6A019308BD2802030008B5024B93
:104510001B68DB6A019308BD2802030008B5024B43
:104520001B681B6B019308BD2802030008B5024BF2
:104530001B685B6B019308BD2802030008B5024BA2
:104540001B681B6C019308BD2802030008B5024BD1
:104550001B685B69019308BD6402030008B5024B48
:104560001B689B68019308BD6802030008B5024BF5
:104570001B68DB68019308BD6802030008B5024BA5
:104580001B68DB69019308BD3002030008B5024BCC
:104590001B681B6A019308BD3002030008B5024B7B
:1045A0001B681B68019308BD3C02030008B5024B61
:1045B0001B68DB68019308BD3C02030008B5024B91
:1045C0001B681B69019308BD3C02030008B5024B40
:1045D0001B685B69019308BD3C02030008B5024BF0
:1045E0001B689B69019308BD3C02030008B5024BA0
:1045F0001B68DB69019308BD3C02030008B5024B50
:104600001B681B6A019308BD3C02030008B5024BFE
:104610001B689B6A019308BD3C02030008B5024B6E
:104620001B681B68019308BD4C02030008B5024BD0
:104630001B685B68019308BD4C02030008B5024B80
:104640001B681B69019308BD4C02030008B5024BAF
:104650001B685B69019308BD4C02030008B5024B5F
:104660001B689B69019308BD4C02030008B5024B0F
:104670001B68DB69019308BD4C02030008B5024BBF
:104680001B681B6A019308BD4C02030008B5024B6E
:104690001B685B68019308BD2002030008B5034B4B
:1046A0001B68D3F88830019308BD00002002030086
:1046B00008B5034B1B68D3F89430019308BD000084
:1046C0002002030008B5024B1B68DB6B019308BD99
:1046D0004402030008B5024B1B685B68019308BDE8
:1046E0004002030008B5024B1B689B68019308BD9C
:1046F0004002030008B5024B1B68DB68019308BD4C
:104700004002030008B5024B1B681B69019308BDFA
:104710004002030008B5024B1B685B69019308BDAA
:104720004002030008B5024B1B689B69019308BD5A
:104730004002030008B5024B1B68DB69019308BD0A
:104740004002030008B5024B1B681B6A019308BDB9
:104750004002030008B5024B1B681B6B019308BDA8
:104760004002030008B5024B1B685B6B019308BD58
:104770004002030008B5024B1B681B68019308BD8B
:104780001C02030008B5024B1B685B68019308BD5F
:104790001C02030008B5024B1B689B68019308BD0F
:1047A0001C02030008B5024B1B685B6A019308BD3D
:1047B0001C02030008B5024B1B68DB6B019308BDAC
:1047C0001C02030010B50446006808B1FFF746FE5E
:1047D000204610BD10B5064C002320462360FFF78D
:1047E00035FE2046034A0449BDE8104000F076BE7D
:1047F000A4E403206CE40320C5470D000022114609
:104800004068FFF77FBF002211464068FFF79ABF5C
:10481000002211464068FFF7A5BF00224068FFF75D
:1048200099BF002281F001014068FFF783BF002398
:104830001A4619464068FFF775BF00231A46194605
:104840004068FFF767BF002211464068FFF74ABF84
:10485000002202214068FFF74DBF00231A4640683E
:10486000FFF738BF38B5084C28252A4600212046D6
:1048700002F0A7FD4FF0FF336360044B2580042254
:104880005A60034A1A6038BDB0E40320A8E403204C
:1048900004750D0010B58368044613B10322014668
:1048A0009847204610BD002211464068FFF74ABFD6
:1048B000002211464068FFF755BF00224068FFF70D
:1048C00049BF002281F001014068FFF733BF002398
:1048D0001A4619464068FFF725BF00231A461946B5
:1048E0004068FFF717BF002211464068FFF70ABF74
:1048F000002211464068FFF7F5BE00220221406801
:10490000FFF7F8BE00231A464068FFF7E3BE000039
:10491000024B03225A60024A1A607047D8E403200F
:1049200038750D007047F8B5064615460C468F18C9
:10493000BC4206D0336814F8011B9B683046984788
:10494000F6E72846F8BD0022007CFFF7C7BD00212E
:10495000007CFFF7CBBD0021007CFFF7CFBD00211D
:10496000007CFFF7D3BD0021007CFFF7D7BD10B559
:104970001421044600F0B7FD204610BD10B50446D2
:10498000002363604FF47A73A360044B21740846DC
:1049900023601146FFF7D2FD204610BD6C750D0057
:1049A0000021007CFFF7C2BD704710B518210446F6
:1049B00000F099FD204610BDF0B5037D062B8DB0AB
:1049C0000E4600F104074FF0000402D000F1080584
:1049D00018E00CAD394605F8304D2F232A460A2041
:1049E000FFF7B4FD284602F01DFD33680246DB6880
:1049F0002946304698470FE024B12E21304600F07A
:104A0000D5F9044415F8011D0A22304600F0E7F9F3
:104A1000BD420444F0D120460DB0F0BD10B5054BA9
:104A20000446112240F8043B002102F0CAFC204653
:104A300010BD00BF94750D000346074A10B543F83A
:104A4000042B01F1100251F8044B43F8044B91423E
:104A5000F9D10A781A7010BD94750D0010B59DF843
:104A6000084044EA032343EA024242EA0161042384
:104A70004160037510BD37B50D788B784A78C978D9
:104A800000912946FFF7EAFF03B030BD014B024A0F
:104A90001A607047E0E4032013760D0000221146EF
:104AA0004068FFF74FBE002211464068FFF75ABE2C
:104AB00000224068FFF74EBE002281F001014068ED
:104AC000FFF738BE00231A4601214068FFF72ABECF
:104AD00000231A4619464068FFF71CBE0022114603
:104AE0004068FFF70FBE002211464068FFF7FABD8D
:104AF000002202214068FFF7FDBD00231A464068EE
:104B0000FFF7E8BD38B5054688B104684CB1A36825
:104B10001BB103222146204698471021204600F071
:104B2000E2FC28461421BDE8384000F0DCBC38BD6A
:104B300010B103685B681847704710B503680446F6
:104B4000BBB15868FFF76AFC78B923685A7C12B980
:104B50005868FFF76BFC23685868FFF76FFC206804
:104B60000023236028B1FFF7CDFF206808B1FFF7CD
:104B7000C9FF204610BD38B50446D0F8C40108B1BD
:104B8000FFF78FFAD4F8C00108B1FFF767FCD4F83B
:104B9000BC5135B12846FFF7D0FF0421284600F06C
:104BA000A2FC206808B1FFF7C3FF204638BD000013
:104BB00010B5044B044640F8083BFFF7DCFF2046E5
:104BC00010BD00BF88760D0038B50E4C0E4B23602B
:104BD0000025022304F5E4706360A560C4F8C451A5
:104BE000C4F8C851FFF732FC084BC4F8CC5184F824
:104BF000D05123602046064A0649BDE8384000F0FF
:104C00006DBC00BFE4E40320BC760D0088760D0087
:104C10006CE40320B14B0D0000231A464068FFF7F7
:104C200059BD002202214068FFF764BD00221146F1
:104C30004068FFF757BD002211464068FFF762BD8C
:104C400000231A4619464068FFF764BD00231A4640
:104C500019464068FFF766BD002281F001014068F7
:104C6000FFF768BD00224068FFF774BD00221146BF
:104C70004068FFF777BD002211464068FFF762BD2C
:104C80002DE9F043002495B016460D460746FFF780
:104C9000C5FE214620220CA8009402F092FB40237E
:104CA0000C9321466B460CAA3046FFF75FFC044686
:104CB000002844D1024601216868FFF723FD022144
:104CC000804622466868FFF71DFD009E814621460A
:104CD000002E34D0002932D17368022B02D00A2B67
:104CE00009D02AE0B8F1000F27D0716938460431A5
:104CF000FFF7C1FE20E0B9F1000F1ED07469112248
:104D000001A802F05EFB06238DF8143001AD04F11A
:104D100008031834186859682A4603C20833A342A6
:104D20001546F7D101A906A807ADFFF785FE0FCDFF
:104D30003C1D0FC42B6823700121F669C8E7009859
:104D4000FFF70CFC384615B0BDE8F083024B034A70
:104D50001A6000225A607047B8E60320BC760D0046
:104D6000F8B506460D468F180024BD420CD03368B6
:104D700015F8011B9B6830469847002801DB044466
:104D8000F3E7002C08BF04462046F8BD70B5054681
:104D90000C46084649B102F045FB2B680246214605
:104DA0002846DB68BDE87040184770BD03689B6803
:104DB000184738B50D210546FFF7F8FF0A210446CC
:104DC0002846FFF7F3FF204438BD38B50546FFF706
:104DD000DDFF04462846FFF7ECFF204438BD30B520
:104DE0008BB00B4600218DF82410012A98BF0A22AF
:104DF0000DF12304B3FBF2F505FB123303F0FF03BF
:104E0000092B94BF30333733DBB2214604F8013924
:104E10002B46002DEED1FFF7B9FF0BB030BD0CB41F
:104E20002DE9F04387B000AF07F13804054654F888
:104E3000049B3C600E4623464A461421381DFFF76A
:104E4000B1FC132805D8391D2846FFF79FFF0446FB
:104E500013E000F1080323F00703E846ADEB030D70
:104E6000411C23464A4668463C60FFF79BFC694666
:104E70002846FFF78BFF0446C5461EB12846FFF7BC
:104E800098FF044420461C37BD46BDE8F04302B0FD
:104E9000704710B50446FFF7FDFC204610BD00002A
:104EA0000348044A04490023836000F017BB00BF95
:104EB000C0E603206CE40320934E0D00704710B54C
:104EC0000C21044600F00FFB204610BD10B5054B29
:104ED0000360044601710846FFF750FB0023A360FE
:104EE000204610BDF0760D000079FFF74FBB10B5DE
:104EF00004460068FFF746FC204610BD10B5044686
:104F0000006808B1FFF73EFC00232360A3606360E4
:104F100010BD38B504460D4600680131FFF73AFC74
:104F200010B184E82100012038BD10B503680446A3
:104F300013B143688B4207D22046FFF7EAFF20B146
:104F4000A3680BB922681370012010BD70B50E461E
:104F5000114604461546FFF7E8FF18B92046FFF74B
:104F6000CDFF09E02A463146A560206802F01EFA0E
:104F70002268A3680021D154204670BD38B50023B3
:104F8000044603604360836003730D4639B10846ED
:104F900002F048FA294602462046FFF7D7FF20468E
:104FA00038BD38B505460C4641B1084602F03AFA1C
:104FB000214602462846FFF7C9FF01E0FFF79EFFA2
:104FC000284638BD10B50446006818B1FFF7DAFB73
:104FD0000023236010BD10B50446FFF7F3FF204601
:104FE00010BD000010B5094C00204FF6FF73206083
:104FF000A080A07120816381FFF748FB2046044A0E
:105000000449BDE8104000F069BA00BFD0E60320B3
:105010006CE40320D74F0D00024B1A68024B1A6054
:10502000704700BF00E40320DCE6032070474174B2
:10503000704708B5007CFFF7E9FA20EAE07008BD88
:1050400008B5007CFFF7BAFA20EAE07008BD08B5A1
:10505000007CFFF7C3FA30EA200028BF4FF0FF3092
:1050600008BD08B5007CFFF7B1FA30EA200028BF80
:105070004FF0FF3008BD007CFFF7B8BA10B514211F
:10508000044600F030FA204610BD70B5457C044659
:105090000E4625B9007CFFF7B9FA002805DD314638
:1050A000207CBDE87040FFF781BA284670BD000043
:1050B00010B5044608461146002262604FF47A7229
:1050C000A260054A22600122207462741A46FFF72A
:1050D00065FA204610BD00BF2C770D00007CFFF75D
:1050E0008DBA0000F8B5194C25684DB98420FEF73B
:1050F000D4FF064618B18422294602F062F92660E0
:10510000134D2E684EB98420FEF7C7FF074618B12D
:105110008422314602F055F92F600E4F396811F0A4
:10512000010611D13846FEF7BEFF68B122682B6830
:1051300009483146FFF7BCFF3846FEF7B9FF074A7A
:105140000749054800F0CAF90348F8BDFCE603200A
:10515000F4E60320F8E60320E0E603206CE40320F5
:105160002D500D0041747047704708B50021007C38
:10517000FFF774FA30EA200028BF4FF0FF3008BD77
:1051800008B50121007CFFF769FA30EA200028BF4A
:105190004FF0FF3008BD08B5007CFFF757FA20EA52
:1051A000E07008BD08B5007CFFF748FA20EAE0701F
:1051B00008BD007CFFF762BA10B51421044600F068
:1051C00092F9204610BD38B50446007C0D46FFF725
:1051D0003DFA002801DC607C28B12946207CFFF7DD
:1051E00045FA20EAE07038BD10B50446002363603C
:1051F0004FF47A73A360054B2360012308462174A2
:1052000063741146FFF70AFA204610BD5C770D0063
:105210000022007CFFF70ABA10B5142204460021D0
:1052200002F0CFF8204610BD30B50E4D87B001A872
:10523000FFF7F2FF296811F0010410D12846FEF7AC
:1052400032FF60B101AA21460748FFF7CDFF28468B
:10525000FEF72EFF054A0649034800F03FF90248D1
:1052600007B030BD00E7032004E703206CE403200F
:1052700069510D0008B50C4B33B1FFF7D5FF03683A
:105280001B699847002809DC084B63B1FFF72AFF28
:1052900003681B699847002803DC08BDAFF3008052
:1052A000F2E7AFF3008008BD00000000000000003E
:1052B00008B5FFF7DFFFFFF7E1F8014B186008BD05
:1052C00020E703200248034A0349121A02F06EB88D
:1052D00000F4032004F4032040780D0007B50023F8
:1052E00000931A466FF07701FFF7E2F903B05DF81B
:1052F00004FB000007B543880A2B08D0502B09D1C6
:10530000094B1B683BB103B05DF804EB1847FFF78E
:10531000E5FF06E0002300931A466FF07701FFF7E0
:10532000C7F903B05DF804FB18E7032038B5104C4B
:10533000104D2368AB42104B0CBF012200221A70A3
:1053400002D0FFF7BFFF2560FFF790F8044602F098
:1053500041F80A4B13B12046AFF300800021074803
:10536000FFF7B0F900210648BDE83840FFF796B9CD
:1053700000F403201E1C279A1CE7032000000000F5
:10538000F5520D0010B5044600F088F8FFF7ACFDAB
:1053900028B1A4F10B03022B01D8002010BD00F0AE
:1053A00057F8FFF7FDFA08B1012CF6D9FFF79AFE7E
:1053B000FFF794FE18B1A4F10903012BEDD9232CBA
:1053C0008CBF0020012010BD232838B504460D46AF
:1053D0000AD8FF2908D0FFF7D5FF28B12946204673
:1053E000BDE83840FFF762B838BD0D2810B5044657
:1053F0009CBF0E34A4B22046FFF7C4FF50B1032176
:105400002046FFF74BF8032804D12046BDE81040A2
:10541000FFF754B8002010BDFFF758B870B5044628
:1054200014252A46094E002101F0CBFF25802025B6
:105430003146A5602561284600F06FF8314660606E
:10544000284600F06AF8E060204670BD84770D00C1
:1054500030B50E4D296811F0010487B013D12846EC
:10546000FEF721FE78B101A8FFF7D8FF01AA214677
:105470000748FFF783FA2846FEF71AFE054A064951
:10548000034800F02BF8024807B030BD24E70320A2
:1054900028E703206CE4032025490D0038B50B4DA7
:1054A000296811F001040FD12846FEF7FCFD58B120
:1054B00021460748FFF70AFD2846FEF7F9FD054A91
:1054C0000549034800F00AF8014838BD48E70320C1
:1054D0003CE703206CE40320BD4E0D000B46014663
:1054E000184601F055BFFEF7DABD0000024B186800
:1054F000BFF35F8F704700BF4CE7032010B5002853
:1055000014BF044601242046FFF734F920B9FFF701
:10551000EDFF08B18047F6E710BDFFF7EFBF0000D1
:10552000244B1A68D0075CBF01221A60224B1A680C
:10553000D1075CBF01221A60204B1A68D2075CBFFA
:1055400001221A601E4B1A68D0075CBF01221A6044
:105550001C4B1A68D1075CBF01221A601A4B1A68EB
:10556000D2075CBF01221A60184B1A68D0075CBFD3
:1055700001221A60164B1A68D1075CBF01221A601B
:10558000144B1A68D2075CBF01221A60124B1A68CA
:10559000D0075CBF01221A60104B1A68D1075CBFAC
:1055A00001221A600E4B1A68D2075CBF01221A60F2
:1055B000704700BF7CE7032078E7032074E70320EF
:1055C00070E703206CE7032068E7032064E703200B
:1055D00060E703205CE7032058E7032054E703203B
:1055E00050E70320184B1A68D1075CBF01221A60EC
:1055F000164B1A68D2075CBF01221A60144B1A6856
:10560000D0075CBF01221A60124B1A68D1075CBF39
:1056100001221A60104B1A68D2075CBF01221A607F
:105620000E4B1A68D0075CBF01221A600C4B1A6837
:10563000D1075CBF01221A600A4B1A68D2075CBF0F
:1056400001221A60704700BF9CE7032098E70320FF
:1056500094E7032090E703208CE7032088E70320EA
:1056600084E7032080E70320184B1A68D1075CBF4A
:1056700001221A60164B1A68D2075CBF01221A6019
:10568000144B1A68D0075CBF01221A60124B1A68CB
:10569000D1075CBF01221A60104B1A68D2075CBFA9
:1056A00001221A600E4B1A68D0075CBF01221A60F3
:1056B0000C4B1A68D1075CBF01221A600A4B1A68AA
:1056C000D2075CBF01221A60704700BFBCE703200D
:1056D000B8E70320B4E70320B0E70320ACE70320DA
:1056E000A8E70320A4E70320A0E70320244B1A68BF
:1056F000D0075CBF01221A60224B1A68D1075CBF39
:1057000001221A60204B1A68D2075CBF01221A607E
:105710001E4B1A68D0075CBF01221A601C4B1A6826
:10572000D1075CBF01221A601A4B1A68D2075CBF0E
:1057300001221A60184B1A68D0075CBF01221A6058
:10574000164B1A68D1075CBF01221A60144B1A6805
:10575000D2075CBF01221A60124B1A68D0075CBFE7
:1057600001221A60104B1A68D1075CBF01221A602F
:105770000E4B1A68D2075CBF01221A60704700BF47
:10578000ECE70320E8E70320E4E70320E0E7032059
:10579000DCE70320D8E70320D4E70320D0E7032089
:1057A000CCE70320C8E70320C4E70320C0E70320B9
:1057B0002DE9F04F2DED028BDFF824A38BB057ECD1
:1057C000106B55EC114B00F08FF99AF90080B0EE98
:1057D000408AF0EE608AB8F1FF3F48D022462B465F
:1057E0002046294601F06EFD834600283FD132460F
:1057F0003B463046394601F065FD8146002840F0C1
:105800009080304639460022002301F029FD00280F
:1058100036D0002200232046294601F021FD834690
:10582000B8B19FEDA57B0122A94BCDF82090009245
:10583000CDE90267CDE904458DED067B0193B8F112
:10584000000F5BD09FED9E0B0BB0BDEC028BBDE853
:10585000F08F45EC104B00F0A7FF40B10022002371
:105860002046294601F006FD002840F0C580B0EE34
:10587000480AF0EE680A0BB0BDEC028BBDE8F08F71
:10588000B0EE480AF0EE680A00F08EFF804600286D
:1058900061D04FF000084FF0000951EC180B424660
:1058A0004B4601F0DDFC0028E1D047EC106B00F026
:1058B0007BFF0028DBD045EC104B00F075FF002883
:1058C000D5D09AF90030824A019204210022022B9D
:1058D000CDE90267CDE90445CDE90689009108923A
:1058E00003D0684600F068FF70B9FEF763FF22231B
:1058F000036009E09FED707B8DED067B684600F04C
:105900005BFF002800F08E80089B1BB1FEF752FF62
:10591000089B03609DED060B0BB0BDEC028BBDE850
:10592000F08F002200232046294601F099FC002830
:105930009DD09FED630B664BCDF820B00122B8F1EE
:10594000020FCDE90267CDE904458DED060B8DE828
:105950000C00D3D18FE747EC106B00F025FF002837
:1059600097D045EC104B00F01FFF002891D053EC6E
:10597000182B18EE100A194601F0A4FC00287CD15F
:1059800003239AF900800093514B0890CDE90267F8
:10599000CDE904450193B8F1000F48D1DFF84491F7
:1059A0004FF060480022002330463946CDE9068991
:1059B00001F060FC002894D00022464B2046294686
:1059C00001F0E6F904460D4645EC104B00F000FFEF
:1059D000204653EC102B294601F042FC002849D107
:1059E0003D4B9AF900804FF06042CDE90623B8F1B3
:1059F000020F7FF476AF78E7354A9AF90030CDF898
:105A000020B00121CDE90267CDE904458DE806000B
:105A1000002B3FF46FAF31490020022BCDE9060186
:105A20007FF46CAFFEF7C6FE212303606CE79FEDA9
:105A3000267B00220023304639468DED067B01F09F
:105A400019FC0028D3D00022224B2046294601F021
:105A50009FF904460D4645EC104B00F0B9FE204678
:105A600053EC102B294601F0FBFB18B91B4B00220D
:105A7000CDE906239AF90080B9E7154B9AF9009011
:105A8000CDF820800122CDE90267CDE904458DE8FB
:105A90000C00B9F1000F3FF42DAF00220023104697
:105AA000194601F09FFAB9F1020FCDE90601B9D00C
:105AB00024E700BFAFF300800000000000000000FA
:105AC000000000000000F03F000000000000F07F38
:105AD00088770D000000E03FFFFFEFC70000F0FFF8
:105AE00004E40320FFFFEF472DE9F04F51EC110BC9
:105AF00021F0004858EA000493B03CD053EC102B3E
:105B00006D4E23F00044B44210EE10AA1D462BDC6B
:105B1000894611EE10EA26D0B04525DC664EB04528
:105B200077D0002D16461F46CDE9000175DB4FF0FA
:105B3000000BBEF1000F2DD15F4B984500F089801E
:105B40005E4B98455ED0B9F1804F00F0DE835C4B30
:105B500099451FD1002D1DDB47EC106B13B0BDE83C
:105B6000F04F00F049BD5AB104F1404404F58014EF
:105B700054EA0A0306D19FED4A0B13B0BDE8F08F3B
:105B8000A045CBDD4F4813B0BDE8F04F00F018BE84
:105B90004FF0000B47EC106B00F0FEFD51EC100BCA
:105BA000BAF1000F1ED0ED0F05F1FF3A5BEA0A03D0
:105BB00063D0454B984540F38D8003F104739845BD
:105BC00040F33884414B9C4262DDB9F1000F62DD45
:105BD00035A3D3E900231046194601F0D9F841EC6A
:105BE000100BCAE724B1354B25F040429A42DAD176
:105BF000B9F1000FC0F2CB83002DC0F2748341ECE9
:105C0000100BBAE7B9F1000FC0F27A8447EC106BC1
:105C1000B3E7BEF1000F84D0A6E72D4B984529DCF1
:105C2000A3F15473984582DD4FEA2853A3F2FF3362
:105C3000142B40F37F84C3F134032EFA03F202FAEB
:105C400003F39E457FF473AF02F00102C2F1020B31
:105C50006FE704F1404303F5801353EA0A038AD047
:105C60001A4B9C4240F38583B9F1000F13DB9DED85
:105C7000000B82E74FF0020B5BE732463B461046D3
:105C8000194600F0D1FE02460B4601F0ABF9B6E72B
:105C9000B9F1000F9CDB9FED060B6EE7AFF30080C0
:105CA000000000000000F03F9C7500883CE4377E57
:105CB00000000000000000000000F07F0000F03F46
:105CC0000000E03F8C770D000000E041FFFFEF3F58
:105CD000FFFF3F43B4F5801F4FF0000205DAD64BBB
:105CE00001F056F86FF034020C462315D34EC4F37E
:105CF0001304A3F2FF33134444F07F55B4421A4611
:105D00000D9345F4401540F34983CD4B9C4240F33D
:105D10002D849FEDB37B8DED087B8DED0E7B9FED8C
:105D2000B27B13468DED067B01330D93A5F58015EF
:105D30004FF00008DDE906232946CDE90A0100F00D
:105D400073FEDDE9062306460F46DDE90A0100F091
:105D50006DFE02460B460020BA4901F043F90346A6
:105D60000C46CDE9103402460B463046394601F068
:105D70000FF86B1043F0005303F5002303EB080505
:105D80000A4600230146CDE902120293DDE90289A9
:105D90000024CDE904122B4622464046494600F035
:105DA000F7FF02460B463046394600F03DFEDDE97E
:105DB000062306460F462046294600F035FE0246D9
:105DC0000B46DDE90A0100F02FFE42464B4600F08B
:105DD000DFFF02460B463046394600F025FEDDE97E
:105DE000102300F0D5FFDDE90445CDE90601224688
:105DF0002B462046294600F0CBFF7DA3D3E90023A4
:105E000004460D4600F0C4FF7BA3D3E9002300F055
:105E10000DFE22462B4600F0BBFF79A3D3E90023F9
:105E200000F004FE22462B4600F0B2FF76A3D3E931
:105E3000002300F0FBFD22462B4600F0A9FF74A3CF
:105E4000D3E9002300F0F2FD22462B4600F0A0FF2C
:105E500071A3D3E9002300F0E9FD224606460F4670
:105E60002B462046294600F093FF02460B4630465B
:105E7000394600F08DFF424604460D464B46DDE9AB
:105E8000040100F0D3FDDDE9062300F081FF224686
:105E90002B4600F0CBFD424606460F464B46404699
:105EA000494600F075FF0022674BCDE90A0100F07A
:105EB000BDFD32463B4600F0B9FD02980D46044652
:105EC00022462B464046494600F062FF00228046AB
:105ED00089465D4B2046294600F0A6FDDDE90A23F0
:105EE00000F0A2FD02460B463046394600F09CFD0C
:105EF000DDE9042300F04CFF224606460F462B4600
:105F0000DDE9060100F044FF02460B463046394603
:105F100000F08CFD06460F4602460B4640464946B9
:105F2000CDE9048900F082FD02983DA3D3E9002366
:105F300004460D4600F02CFFDDE904238046894627
:105F40002046294600F070FD02460B463046394691
:105F500000F06AFD34A3D3E9002300F019FF34A355
:105F6000D3E9002306460F462046294600F010FFDD
:105F700002460B463046394600F058FDDDE90E2357
:105F800000F054FD06460D980F4600F09BFE324689
:105F900004460D463B464046494600F047FDDDE9D4
:105FA000082300F043FD22462B4600F03FFD0298F7
:105FB00022462B46CDE9020100F036FDDDE908233B
:105FC00000F032FD42464B4600F02EFD02460B46E5
:105FD0003046394600F028FD8046894636E000BF4D
:105FE0000000000000000000000000000000F03F82
:105FF000EF4E454A287ECA3F65DBC9934A86CD3FAE
:1060000001411DA96074D13F4D268F515555D53F93
:10601000FFAB6FDBB66DDB3F033333333333E33F2B
:10602000000000E009C7EE3FFD033ADC09C7EE3F80
:10603000F5015B14E02F3EBE000040438E98030044
:1060400079B60B000000F03F000008400BF1FF3371
:1060500053EA0A0300F088819FEDD77B8DED067B24
:10606000DDE900AB53465C46CDE9003400230093E4
:10607000DDE90045504622462B46594600F0D4FC47
:10608000DDE9022300F084FE524606460F465B46D9
:106090004046494600F07CFE02460B4630463946F3
:1060A00000F0C4FC2246804689462B46DDE9020109
:1060B000CDE9048900F06CFE0B46024606460F4609
:1060C0004046494600F0B2FCD54B994204460D4685
:1060D0008A4640F3238101F13F4303F5E003034384
:1060E00040F01882B6A3D3E90023DDE9040100F0F3
:1060F0009DFC3246804689463B462046294600F0B4
:1061000093FC02460B464046494601F0D1F8002870
:1061100040F00082A8464FEA28534FF48012A3F2C1
:10612000FE3342FA03F35344C3F30A52BD4DA2F2C5
:10613000FF321541C3F3130B0020C2F1140423EA0C
:1061400005014BF4801BBAF1000F02460B464BFAD7
:1061500004FB30463946B8BFCBF1000B00F064FCBD
:1061600002460B4606460F46DDE9040100F05EFCE0
:106170004FEA0B5A002494A3D3E9002320460D468E
:1061800000F006FE3246804689463B4620462946B8
:1061900000F04AFC02460B46DDE9040100F044FC35
:1061A0008BA3D3E9002300F0F3FD8BA3D3E90023F5
:1061B00006460F462046294600F0EAFD02460B46F9
:1061C0003046394600F032FC06460F4602460B4682
:1061D0004046494600F02AFC42464B4604460D46DE
:1061E00000F022FC02460B463046394600F01CFC0B
:1061F0002246804689462B462046294600F0C8FDA7
:1062000077A3D3E9002306460F4600F0C1FD76A32D
:10621000D3E9002300F008FC32463B4600F0B8FD0D
:1062200073A3D3E9002300F001FC32463B4600F0A3
:10623000AFFD71A3D3E9002300F0F6FB32463B46E5
:1062400000F0A6FD6EA3D3E9002300F0EFFB324679
:106250003B4600F09DFD02460B462046294600F0D5
:10626000E3FB06460F4602460B462046294600F051
:106270008FFD0022CDE900014FF0804330463946C2
:1062800000F0D2FB02460B46DDE9000100F0AAFE59
:10629000424606460F464B462046294600F078FD0A
:1062A00042464B4600F0C2FB02460B46304639469A
:1062B00000F0BAFB22462B4600F0B6FB02460B4626
:1062C0000020594900F0B0FB8A44BAF5801F02460D
:1062D0000B46C0F25B815146DDE9062300F058FD14
:1062E00041EC100B49E404F1404404F5801454EAF5
:1062F0000B0300F03781BBF1010F7FF480AC024645
:1063000001F1004343EC102B37E432463B46304664
:10631000394600F03DFD41EC100B2EE4434B21F0DB
:106320000048984540F31581414B0B4403430CD181
:1063300032463B4600F078FB02460B46DDE904019D
:1063400000F0A2FF00283FF4E6AE2FA3D3E900231C
:10635000DDE9060100F01CFD2BA3D3E9002300F0CA
:1063600017FD41EC100B08E49FED297B8DED067BBA
:1063700076E6B9F1000FBFF68EACDDE9003400EE31
:10638000103A04F1004300EE903AFFF7F6BB0246E4
:106390000B460020244900F025FE2DE49FED1E7BD6
:1063A0008DED087B8DED0E7B9FED037B4FF000089C
:1063B0008DED067BBEE400BF000000000000F03F52
:1063C000FE822B654715973C00000000432EE63FF8
:1063D000EF39FAFE422EE63F396CA80C615C20BE14
:1063E000D0A4BE726937663EF16BD2C541BDBB3EDB
:1063F0002CDE25AF6A56113F93BDBE166CC1663FB9
:106400003E5555555555C53F59F3F8C21F6EA50168
:10641000000000000000F0BF0000000000000000CD
:10642000FFFF8F40FFFF0F000000F03FFFCB9040C9
:1064300000346F3F6C4B9C427FF72AAC6B4B9C4205
:106440003FF7C3AB0022694B00F0EEFA56A3D3E945
:10645000002304460D4600F09BFC55A3D3E900231E
:10646000804689462046294600F092FC0022CDE96C
:1064700002015F4B2046294600F08AFC02460B468B
:106480004DA1D1E9000100F0CFFA22462B4600F0E1
:106490007FFC02460B460020564900F0C5FA224612
:1064A0002B4606460F462046294600F071FC024660
:1064B0000B463046394600F06BFC41A3D3E900237C
:1064C00000F066FC02460B46DDE9020100F0ACFA82
:1064D00002460B4604460D464046494600F0A6FAE1
:1064E00042464B460020CDE9020100F09DFA0246EB
:1064F0000B462046294600F097FA80468946A5E5D6
:1065000032463B460020394900F06CFD41EC100B4F
:10651000FFF733BB2CA3D3E90023DDE9060100F02C
:1065200037FC29A3D3E9002300F032FC41EC100B27
:10653000FFF723BBBEF1000F7FF42AABC3F11403B6
:1065400048FA03F202FA03F3984527D0F346FFF71F
:10655000F7BA284B98453FF7DEADDDE900349A469F
:106560009B4607E602460B46FFF789BB9FED187B6B
:106570008DED087B9FED187B8DED0E7B9FED187BDD
:106580004FF480288DED067BFFF7D4BB584643ECD3
:10659000102B00F0B1F951EC100B9DE602F0010256
:1065A000C2F1020BFFF7CCBA000000604715F73FBD
:1065B00044DF5DF80BAE543E555555555555D53F06
:1065C000FE822B654715F73F9C7500883CE4377EBB
:1065D0000000004003B8E23F06D0CF43EBFD4C3E45
:1065E000000000000000F83FFEFFEF3F0000F03F1A
:1065F0000000D03F0000E03F2DE9F041654955EC37
:10660000104B0E462940B14200F09780002D2B46DA
:1066100010EE102A74DD2F157FD0A7F2FF37C3F3D9
:106620001303F90743F4801365D403EBD2710026FA
:106630000B447F105200B64616204FF400110EEBAB
:1066400001049C424FEAD2754FEA420203DC1B1B55
:1066500004EB010E0E44013805EB43034FEA5101F0
:10666000EDD1844620244FF0004109E020D003EB17
:10667000D275013C4FEA51012B444FEA420220D02F
:106680009E4501EB0C05F1DA002D05EB010C09DB51
:10669000F0469542CEEB030300D9013B521B084460
:1066A000C646E4E7BCF1000FF2DB0EF10108F0E7AB
:1066B00095421ED8002D05EB010C50DB98460023B7
:1066C000ECE7134304D0421C4DD000F00103184402
:1066D00040087110F30701F17F5101F5001148BF27
:1066E00040F0004001EB0753024643EC102BBDE89D
:1066F000F0817346BBE75B0003EBD273520094E773
:1067000025F00041214328D0ADBB2F46D30A153FC9
:106710005205002BFAD0DD0228D4002100E001460A
:106720005B00DC0201F10100F9D5C0F1200422FA7E
:1067300004F423437F1A82406FE710EE102A2B46A1
:1067400010EE100A294600F023FB22462B4600F0EB
:106750006DF941EC100BBDE8F081BDE8F081BCF1B2
:10676000000FA2DAAAE701362046B2E720244FF054
:10677000FF310020DBE710EE102A2B462046294689
:1067800000F052F902460B4600F02CFC41EC100BD5
:10679000BDE8F0810000F07F53EC102B23F00043A4
:1067A00043EC102B704700BF10EE903A43F00040CE
:1067B00000F58010C00F70470020704700000000F7
:1067C0009FED010B704700BF000000000000F87F44
:1067D000F0B553EC102BC3F30A56A6F2FF30132882
:1067E00083B019464FEAD37410EE105A2FDC0028FC
:1067F00049DB3F4E064103EA060717432CD07608D3
:1068000033401D430CD04FF48023132821EA0606A1
:1068100043FA00F141EA06010CBF4FF000450025A4
:10682000344800EBC4042A46D4E9004510462B4600
:10683000224600F0FBF8CDE9000122462B46DDE9B7
:10684000000100F0F1F841EC100B03B0F0BD33286B
:1068500006DDB0F5806F42D043EC102B03B0F0BDE5
:10686000A6F213464FF0FF30F0400242F4D0400849
:106870000242D5D04FF0804325EA000043FA06F6E5
:1068800046EA0005CCE723F00040104310EE107AF2
:10689000E2D0C3F313000743784207431548590C6D
:1068A0003F0B490407F4002700EBC40047EA01034B
:1068B000D0E90067194610463B46324600F0B6F86C
:1068C000CDE900013B463246DDE9000100F0ACF8BD
:1068D00021F0004343EAC47141EC100BBEE710EE17
:1068E000100A194600F0A2F841EC100BB6E700BF01
:1068F000FFFF0F0090770D0053EC102B70B5C3F322
:106900000A541946054614BB23F0004111432AD00E
:1069100019460022384B394E10EE100A00F038FAB2
:10692000B54202460B461FDBC1F30A54363C2C44E9
:1069300040F2FE7084421FDC002C2DDD21F0FF416F
:1069400021F4E00141EA045343EC102B70BD40F206
:10695000FF708442EBD110EE100A194600F066F881
:1069600041EC100B70BD70BD1FA3D3E9002300F0F4
:106970000FFA41EC100B70BD43EC112B9FED1C0B7B
:1069800000F040F81AA3D3E9002351EC100B00F0FB
:10699000FFF941EC100B70BD14F1350F13DA4CF216
:1069A00050318D4243EC112BE8DC9FED0F0B00F0D2
:1069B00029F80DA3D3E9002351EC100B00F0E8F9FE
:1069C00041EC100B70BD21F0FF4121F4E0013634A1
:1069D00041EA0453104619460022094B00F0D8F949
:1069E00041EC100B70BD00BF59F3F8C21F6EA5013A
:1069F0009C7500883CE4377E00005043B03CFFFFAC
:106A00000000903C53EC102B11EE900A23F0004153
:106A100000F0004041EA000343EC102B704700BF38
:106A200081F0004102E000BF83F0004330B54FEA3F
:106A300041044FEA430594EA050F08BF90EA020FAC
:106A40001FBF54EA000C55EA020C7FEA645C7FEA3F
:106A5000655C00F0E2804FEA5454D4EB5555B8BF62
:106A60006D420CDD2C4480EA020281EA030382EAD3
:106A7000000083EA010180EA020281EA0303362D65
:106A800088BF30BD11F0004F4FEA01314FF4801C38
:106A90004CEA113102D0404261EB410113F0004F4A
:106AA0004FEA03334CEA133302D0524263EB430301
:106AB00094EA050F00F0A780A4F10104D5F1200E9F
:106AC0000DDB02FA0EFC22FA05F2801841F10001FA
:106AD00003FA0EF2801843FA05F359410EE0A5F1CE
:106AE00020050EF1200E012A03FA0EFC28BF4CF0FF
:106AF000020C43FA05F3C01851EBE37101F00045B5
:106B000007D54FF0000EDCF1000C7EEB00006EEBC1
:106B10000101B1F5801F1BD3B1F5001F0CD349084B
:106B20005FEA30004FEA3C0C04F101044FEA4452A2
:106B300012F5800F80F09A80BCF1004F08BF5FEA29
:106B4000500C50F1000041EB045141EA050130BD09
:106B50005FEA4C0C404141EB010111F4801FA4F1AC
:106B60000104E9D191F0000F04BF01460020B1FA01
:106B700081F308BF2033A3F10B03B3F120020CDA39
:106B80000C3208DD02F1140CC2F10C0201FA0CF017
:106B900021FA02F10CE002F11402D8BFC2F1200C7C
:106BA00001FA02F120FA0CFCDCBF41EA0C01904032
:106BB000E41AA2BF01EB0451294330BD6FEA04047B
:106BC0001F3C1CDA0C340EDC04F11404C4F1200266
:106BD00020FA04F001FA02F340EA030021FA04F378
:106BE00045EA030130BDC4F10C04C4F1200220FACF
:106BF00002F001FA04F340EA0300294630BD21FA0D
:106C000004F0294630BD94F0000F83F4801306BFD2
:106C100081F480110134013D4EE77FEA645C18BFC6
:106C20007FEA655C29D094EA050F08BF90EA020F5D
:106C300005D054EA000C04BF1946104630BD91EA55
:106C4000030F1EBF0021002030BD5FEA545C05D158
:106C50004000494128BF41F0004130BD14F5800497
:106C60003CBF01F5801130BD01F0004545F0FE410B
:106C700041F470014FF0000030BD7FEA645C1ABF40
:106C8000194610467FEA655C1CBF0B46024650EA77
:106C9000013406BF52EA033591EA030F41F40021A3
:106CA00030BD00BF90F0000F04BF0021704730B529
:106CB0004FF4806404F132044FF000054FF00001FE
:106CC00050E700BF90F0000F04BF0021704730B5BF
:106CD0004FF4806404F1320410F0004548BF404294
:106CE0004FF000013EE700BF42004FEAE2014FEAE9
:106CF00031014FEA02701FBF12F07F4393F07F4FC4
:106D000081F06051704792F0000F14BF93F07F4FF5
:106D1000704730B54FF4607401F0004521F0004138
:106D200020E700BF50EA010208BF704730B54FF0BE
:106D300000050AE050EA010208BF704730B511F0C3
:106D4000004502D5404261EB41014FF4806404F1FB
:106D500032045FEA915C3FF4DCAE4FF003025FEA7D
:106D6000DC0C18BF03325FEADC0C18BF033202EB05
:106D7000DC02C2F1200300FA03FC20FA02F001FA5F
:106D800003FE40EA0E0021FA02F11444C1E600BFFE
:106D900070B54FF0FF0C4CF4E06C1CEA11541DBFB1
:106DA0001CEA135594EA0C0F95EA0C0F00F0DEF87C
:106DB0002C4481EA030621EA4C5123EA4C5350EA61
:106DC000013518BF52EA033541F4801143F48013B2
:106DD00038D0A0FB02CE4FF00005E1FB02E506F043
:106DE0000042E0FB03E54FF00006E1FB03569CF098
:106DF000000F18BF4EF0010EA4F1FF04B6F5007F9E
:106E000064F5407404D25FEA4E0E6D4146EB06060F
:106E100042EAC62141EA55514FEAC52040EA5E5098
:106E20004FEACE2EB4F1FD0C88BFBCF5E06F1ED842
:106E3000BEF1004F08BF5FEA500E50F1000041EB79
:106E4000045170BD06F0004646EA010140EA020026
:106E500081EA0301B4EB5C04C2BFD4EB0C0541EA48
:106E6000045170BD41F480114FF0000E013C00F35D
:106E7000AB8014F1360FDEBF002001F0004170BD81
:106E8000C4F10004203C35DA0C341BDC04F114049A
:106E9000C4F1200500FA05F320FA04F001FA05F226
:106EA00040EA020001F0004221F0004110EBD370F3
:106EB00021FA04F642EB06015EEA430E08BF20EA1F
:106EC000D37070BDC4F10C04C4F1200500FA04F3C2
:106ED00020FA05F001FA04F240EA020001F0004154
:106EE00010EBD37041F100015EEA430E08BF20EAC7
:106EF000D37070BDC4F1200500FA05F24EEA020E0F
:106F000020FA04F301FA05F243EA020321FA04F03D
:106F100001F0004121FA04F220EA020000EBD370F4
:106F20005EEA430E08BF20EAD37070BD94F0000FF4
:106F30000FD101F00046400041EB010111F4801F28
:106F400008BF013CF7D041EA060195F0000F18BFD9
:106F5000704703F00046520043EB030313F4801F15
:106F600008BF013DF7D043EA0603704794EA0C0FCF
:106F70000CEA135518BF95EA0C0F0CD050EA4106E5
:106F800018BF52EA4306D1D181EA030101F0004162
:106F90004FF0000070BD50EA410606BF104619468A
:106FA00052EA430619D094EA0C0F02D150EA013696
:106FB00013D195EA0C0F05D152EA03361CBF1046D7
:106FC00019460AD181EA030101F0004141F0FE4176
:106FD00041F470014FF0000070BD41F0FE4141F4FA
:106FE000780170BD70B54FF0FF0C4CF4E06C1CEAFA
:106FF00011541DBF1CEA135594EA0C0F95EA0C0FAF
:1070000000F0A7F8A4EB050481EA030E52EA033569
:107010004FEA013100F088804FEA03334FF080558A
:1070200045EA131343EA12634FEA022245EA1115B7
:1070300045EA10654FEA00260EF000419D4208BF68
:10704000964244F1FD0404F5407402D25B084FEA15
:107050003202B61A65EB03055B084FEA32024FF4C1
:1070600080104FF4002CB6EB020E75EB030E22BF1E
:10707000B61A754640EA0C005B084FEA3202B6EBDE
:10708000020E75EB030E22BFB61A754640EA5C008D
:107090005B084FEA3202B6EB020E75EB030E22BF1D
:1070A000B61A754640EA9C005B084FEA3202B6EB1E
:1070B000020E75EB030E22BFB61A754640EADC00DD
:1070C00055EA060E18D04FEA051545EA16754FEA3F
:1070D00006164FEAC30343EA52734FEAC2025FEA5D
:1070E0001C1CC0D111F4801F0BD141EA00014FF0EC
:1070F00000004FF0004CB6E711F4801F04BF0143BD
:107100000020B4F1FD0C88BFBCF5E06F3FF6AFAED8
:10711000B5EB030C04BFB6EB020C5FEA500C50F168
:10712000000041EB045170BD0EF0004E4EEA1131EB
:1071300014EB5C04C2BFD4EB0C0541EA045170BDF2
:1071400041F480114FF0000E013C90E645EA060E36
:107150008DE60CEA135594EA0C0F08BF95EA0C0F64
:107160003FF43BAF94EA0C0F0AD150EA01347FF4AC
:1071700034AF95EA0C0F7FF425AF104619462CE783
:1071800095EA0C0F06D152EA03353FF4FDAE1046E6
:10719000194622E750EA410618BF52EA43067FF437
:1071A000C5AE50EA41047FF40DAF52EA43057FF4C7
:1071B000EBAE12E74FF0FF3C06E000BF4FF0010CD2
:1071C00002E000BF4FF0010C4DF804CD4FEA410C36
:1071D0007FEA6C5C4FEA430C18BF7FEA6C5C1BD003
:1071E00001B050EA410C0CBF52EA430C91EA030F84
:1071F00002BF90EA020F0020704710F1000F91EAE1
:10720000030F58BF994208BF90422CBFD8176FEAAE
:10721000E37040F0010070474FEA410C7FEA6C5C7C
:1072200002D150EA013C07D14FEA430C7FEA6C5C83
:10723000D6D152EA033CD3D05DF8040B704700BFAF
:107240008446104662468C461946634600E000BFFD
:1072500001B5FFF7B7FF002848BF10F1000F01BDCF
:107260004DF808EDFFF7F4FF0CBF012000205DF89A
:1072700008FB00BF4DF808EDFFF7EAFF34BF01201F
:1072800000205DF808FB00BF4DF808EDFFF7E0FFB8
:1072900094BF012000205DF808FB00BF4DF808ED09
:1072A000FFF7CEFF94BF012000205DF808FB00BF70
:1072B0004DF808EDFFF7C4FF34BF012000205DF852
:1072C00008FB00BF4FEA410C7FEA6C5C02D150EA38
:1072D000013C0AD14FEA430C7FEA6C5C02D152EACE
:1072E000033C02D14FF0000070474FF0010070479F
:1072F0004FEA4102B2F1E04324BFB3F5001CDCF1D8
:10730000FE5C0DD901F0004C4FEAC0024CEA50700F
:10731000B2F1004F40EB830008BF20F0010070473E
:1073200011F0804F21D113F13872BCBF01F0004041
:10733000704741F480114FEA5252C2F11802C2F173
:10734000200C10FA0CF320FA02F018BF40F00100F4
:107350004FEAC1234FEAD32303FA0CFC40EA0C00A6
:1073600023FA02F34FEA4303CCE77FEA625307D1E3
:1073700050EA01331EBF4FF0FE4040F4400070471A
:1073800001F0004040F0FE4040F40000704700BFB4
:1073900010B5054C13462CB10A4601460220AFF346
:1073A000008010BD204610BD0000000010B5431E37
:1073B0000A44914204D011F8014B03F8014FF8E759
:1073C00010BD02440346934202D003F8011BFAE7C2
:1073D0007047000038B5124B1C68A36B0546D3B943
:1073E0001820FDF7C7F943F20E33A06303804AF675
:1073F000CD33438041F2342383804EF26D63C380EA
:107400004DF6EC630381052343810B238381012225
:107410000023C0E90423A36B00221D615A6138BD1B
:1074200068E40320034613F8012B002AFBD1181A45
:107430000138704721400D005D400D0089400D006E
:107440008D400D0000000000416972205175616C93
:107450006974792053656E736F7220726561647907
:107460002E00416972205175616C697479205365F1
:107470006E736F72204552524F5221004E6F6E65EF
:107480000044616E676572004869676820506F6CE0
:107490006C7574696F6E004C6F7720506F6C6C75F3
:1074A00074696F6E00467265736820416972004CA2
:1074B000504F3A20256400526174696F3A20256666
:1074C000252500436F6E63656E74726174696F6E1B
:1074D0003A202566207063732F4C00416972205159
:1074E00075616C6974793A20257300000200000010
:1074F0000300000001000000000000000000000088
:10750000000000005B480D0051480D0047480D0089
:10751000FD470D003B480D002F480D0023480D008E
:107520001B480D0011480D0007480D00814C0D004F
:10753000000000000000000005490D00FB480D00A0
:10754000F1480D00E7480D00DB480D00CF480D0065
:10755000C3480D00BB480D00B1480D00A7480D0001
:10756000814C0D00000000000000000025490D00C6
:107570006F490D0047490D0027490D004F490D0087
:1075800057490D005F490D0067490D0000000000DC
:1075900000000000B9490D00A9490D00AB490D00DC
:1075A000626175640053657269616C00536572694C
:1075B000616C31007479706500706172616D006397
:1075C0006D6400696400686E64007374726D0066B7
:1075D000696C74006C766C0061646448616E646C04
:1075E00065720072656D6F766548616E646C657278
:1075F00000656E756D48616E646C657273004A5308
:107600004F4E53747265616D4C6F6748616E646C68
:1076100065720061707000253031307520005D208A
:10762000002C200028293A2000205B00636F64654D
:10763000203D200025690064657461696C73203DFC
:1076400020000D0A0066006C6E00666E00636F64B9
:10765000650064657461696C006E6F6E65007472BC
:1076600061636500696E666F007761726E006572B6
:10767000726F720070616E696300616C6C00000073
:107680000000000000000000FB4A0D00F14A0D0060
:10769000E74A0D00DD4A0D00D14A0D00C54A0D0034
:1076A000B94A0D00B14A0D00A74A0D009D4A0D00D0
:1076B000814C0D000000000000000000194C0D007E
:1076C000234C0D002D4C0D00374C0D00414C0D008E
:1076D0004D4C0D00594C0D00654C0D006D4C0D00CE
:1076E000774C0D00814C0D000000000000000000F0
:1076F000BD4E0D00BF4E0D005A00252B3033643AAD
:10770000253032750025592D256D2D2564542548C9
:107710003A254D3A2553257A0061736374696D6586
:107720000000000000000000000000002D500D00CF
:107730007D500D008B500D00614D0D0041500D002E
:1077400063500D004F500D0077500D002F500D006D
:1077500033500D00000000000000000069510D00D2
:10776000B9510D00C7510D00614D0D00A5510D001F
:107770006B510D0081510D00B3510D0097510D005B
:1077800065510D0000000000706F770000000000E0
:10779000000000000000304300000000000030C383
:1077A00000000000000000000000000000000000D9
:1077B00000000000000000000000000000000000C9
:1077C00000000000000000000000000000000000B9
:1077D00000000000000000000000000000000000A9
:1077E0000000000000000000000000000000000099
:1077F0000000000000000000000000000000000089
:107800004300000041430D0019440D00D5470D0011
:1078100065480D0011490D008D4A0D00C94B0D0042
:107820004D4D0D00A14E0D00E54F0D0019500D00FE
:1078300021550D00E5550D0069560D00ED560D0062
:047840000000000044
:1078440019770D000100000000000000A0770D0072
:10785400C0770D00E0770D0000000000000000007C
:10786400000000000000000000780D00000000008F
:107874000000000000000000000000000000000004
:1078840000000000000000000000000000000000F4
:1078940000000000000000000000000000000000E4
:0C78A400000000000000000008E40320C9
:1078B000FFFFFFFF00000102030405060708090A95
:1078C0000B0C0D0E0F101112131415161718191A90
:0878D0001B1C1D1E1F202800D7
:0478D8007856341298
:04000003D0004020C9
:00000001FF
