:02000002D0002C
:1040000000400D00609F0D00000006000D0005013E
:084010000401DE0500000000C0
:04401800F0950D0012
:1040200009480A49884208B505D0094A824202D0A7
:10403000121A05F07DFA0748074A0021121A05F006
:1040400082FA014808BD00BFB4E30320CC9E0D00F6
:1040500020E4032020E40320F0E7032070B502F001
:1040600025FF074C074BE41AA40800251E46A5426D
:1040700004D056F8253098470135F8E770BD00BFE9
:10408000C09E0D00789E0D0000F02CB808B500F021
:10409000F5FABDE8084002F0CBBE01F0F9BC01F032
:1040A000FFBC01F0FDBC0078B0FA80F04009704719
:1040B000012303707047000010B5034B03600446F2
:1040C00001F052F9204610BD0C960D0010B50446C3
:1040D000FFF7F2FF20464FF4987102F0F0FF204600
:1040E00010BD000008B502F05FFE4FF4165102F05B
:1040F0004FFE322001F004FD0420002102F024FFD5
:10410000244800F052FB18B102F04EFE224902E0B2
:1041100002F04AFE214902F04CFB02F085FF02F05A
:10412000E9F81F4801F030F81D4801F099F81C48E3
:1041300001F0FDF81A4801F03CF80022022118486D
:1041400001F044F81749164801F0ACF800220321A9
:10415000134801F03BF81449114801F0A3F800227C
:1041600004210F4801F032F80D48104901F09AF887
:104170000F4800F081FE18B102F016FE0D4902E072
:1041800002F012FE0C4902F014FB01F06DFA0B4B29
:10419000186008BD80E4032014960D002E960D00D3
:1041A000A0E4032048960D0051960D005D960D0089
:1041B0003CE4032065960D007A960D009CE40320F4
:1041C00038B50446114800F01DFB1149054620464C
:1041D00002F07BFC0F4B1B689D4201D10E4910E0A1
:1041E0000E4B1B689D4201D10D490AE00D4B1B6827
:1041F0009D4201D10C4904E00C4B1B689D4203D148
:104200000B49204602F08EFC204638BD80E4032096
:104210008F960D00AC970D0094960D00A8970D0099
:104220009B960D00A0970D00AA960D00A4970D0077
:10423000B8960D00F8B50F4C074620460E461546B9
:1042400000F02EFEBDEEC00A204687ED000A00F009
:1042500055FEDFED097A80EE270A2046BDEEC00A42
:1042600086ED000A00F028FFBDEEC00A012085EDB2
:10427000000AF8BD3CE403200000C8420000000032
:104280002DE9F0472DED028B4D4C4E4B226884B04A
:1042900012B91B68236000E01A6020684A4DDFF8FD
:1042A0003CA104F0EFFA3CA3D3E9002304F08AFC1C
:1042B00004F00EFE286004F007FB9FED391B41EC73
:1042C000100B03F065F895ED008A18EE100A8DEDDD
:1042D000020B04F0F9FA9DED020B8046894632A3E9
:1042E000D3E9002351EC100B04F042FB4246064692
:1042F0000F464B464046494604F03AFB2CA3D3E90F
:10430000002304F035FB02460B463046394604F0E4
:104310007BF9DFED2E7A68EE277A064617EE900AD3
:104320000F4604F0D1FA02460B463046394604F0F7
:104330006DF921A3D3E9002304F068F904F0C8FD66
:10434000CAF8000002F030FD2368214A012102F082
:104350005AFA02F029FD0446286804F0B5FA1D4A0D
:10436000CDE900010121204602F04DFA02F01CFDCA
:104370000446DAF8000004F0A7FA174ACDE9000174
:104380000121204602F03FFA04B0BDEC028BBDE8EB
:10439000F08700BFAFF3008000000000804F1241A3
:1043A00000000000000008409A9999999999F13FFE
:1043B0006666666666660E40D7A3703D0AD7E33F21
:1043C00028E4032030E4032038E403200000024402
:1043D000C2960D00CA960D00D6960D0024E4032067
:1043E000F8B51F460646324814460D4600F038FF21
:1043F000032200212E4800F0E9FE39682C4800F025
:1044000051FF002202212A4800F0E0FE29492848F5
:1044100000F048FF3146264800F051FF2649244865
:1044200000F040FF00220321214800F0CFFE234985
:104430001F4800F037FF29461D4800F040FF204983
:104440001B4800F02FFF00220421194800F0BEFE97
:104450001C49174800F026FF214615481A4C00F069
:104460002EFF1A49124800F01DFF94ED007AF7EE76
:10447000007AB4EEE77AF1EE10FA17DD002205219A
:104480000B4800F0A3FE1249094800F00BFFD4EDE1
:10449000007A0748FDEEE77A17EE901A00F00FFF5A
:1044A0000C490348BDE8F84000F0FCBEF8BD00BF71
:1044B000A0E40320EE960D00F5960D00F7960D0092
:1044C000D4960D0002970D0024E403200A970D00F6
:1044D0000F970D00E7960D0070B504460E46154681
:1044E00001F04AF801223146204600F0B9FF20468B
:1044F0003A2100F069FF2A4620460249BDE8704093
:1045000000F0A1BFC7960D0038B504462DED028B13
:104510000D46B0EE408A01F02FF8294620460122D0
:1045200000F09EFF20463A2100F04EFFB0EE480A10
:10453000BDEC028B2046BDE8384001F041B80000D8
:10454000F0B5D5B007460E46154614A94FF4807253
:1045500008A81C4600F026FF3A4B08937D227B21D9
:1045600008A801F014F83A46374908A8FFF7B4FF45
:104570003246364908A8FFF7AFFF2A46344908A853
:10458000FFF7AAFF214604A802F0C1FA08A800F02C
:10459000F3FF01222F4908A800F062FF3A2108A882
:1045A00000F012FF0122049908A800F059FF04A8A6
:1045B00002F044FA284B1C68F4B108A800F0DCFFB4
:1045C0000122264908A800F04BFF3A2108A800F074
:1045D000FBFE2246224908A800F035FF214B224964
:1045E00093ED000A08A8FFF78FFF204B204993EDB9
:1045F000000A08A8FFF788FF08A800F0F3FE099B4F
:1046000003931C4B039A1B788DF800301A493C2306
:1046100004A801F071FC059C7CB16368013B6360F8
:104620005BB9236820469B689847A368013BA36059
:104630001BB923682046DB68984708A8FFF73CFDB4
:1046400055B0F0BD0C960D0016970D001B970D0090
:1046500024970D002D970D0028E4032039970D00B5
:1046600042970D0038E4032046970D0024E4032010
:1046700051970D0034E4032064970D002DE9F041BB
:1046800000218CB0042002F0B3FC314C314B324D90
:10469000186023681844206000F0E6FF2B68C01AF9
:1046A00047F2305398424FD904A8FFF789FD02F032
:1046B0007BFB049B294A012102F0A5F803AA02A969
:1046C00001A8FFF7B7FD02F06FFB019B244A01210F
:1046D00002F099F802F068FB029B224A012102F0E5
:1046E00092F802F061FB039B1F4A012102F08BF854
:1046F000FFF7C6FD019E039FDDF8088004A908A806
:1047000002F005FA424608AB39463046FFF768FE2C
:1047100008A802F093F9019E039FDDF8088004A920
:1047200008A802F0F4F908AB424639463046FFF7D4
:1047300007FF08A802F082F90023236000F094FF2D
:10474000286004A802F07AF90CB0BDE8F08100BF3F
:1047500028E403202CE403209CE403206D970D0043
:104760007D970D0086970D0093970D0010B5094BAE
:1047700001241C7000F080FF2046002101F0F4F8B5
:104780001121054800F00CF80448BDE8104000F085
:1047900095B800BF34E4032080E403203CE4032008
:1047A0000022016002614261704710B50446008832
:1047B00002F007FC40F21233A0F10B029A4207D834
:1047C000A0606060E06000F04FFFA061012010BDBC
:1047D000002010BD10B5044600F046FFA369C01AC2
:1047E000074B98420AD92369626993FBF2F3E360AD
:1047F00000F03AFF0023A0612361636110BD00BF98
:1048000020A1070010B5836843600446008802F0C9
:10481000D8FB2369A0601844636920610133636198
:104820002046FFF7D7FFA2686168511AB1F5C87F2B
:1048300010DCB2F52F7F0DDCE368D31A962B0BDC6E
:10484000C82902DDB2F52F7F08D1322BCCBF022060
:10485000032010BD002010BD012010BD022010BD9E
:1048600000F00ABF7FB5024608461379956833B158
:104870003DB90C4904B0BDE8704001F087BF0A4B58
:1048800000E00A4B167B0A4C0A49527B0292012E29
:1048900008BF214601910095074A002101F0B3FFAE
:1048A00004B070BDCD970D00B49C0D00BC970D00F9
:1048B000C5970D00C9970D00E3970D00FF22027404
:1048C00042748274C27470472DE9F04190F913303C
:1048D000013305460F4606D102F0CCFB3946BDE850
:1048E000F04102F095B8072600244FF0010895F931
:1048F0001300002180B202F038FB95F9110008FA8C
:1049000006F1394080B202F030FB95F91300012125
:1049100080B202F02AFB95F91200640080B2E4B282
:1049200002F03CFB08B144F0010416F1FF36DED280
:104930002046BDE8F08100007FB590F910300133CA
:1049400004460E46154611D10179006801F009FDB3
:104950002068036831469B689847206803682946A9
:104960009B689847206801F007FD31E090F913300B
:10497000013310D102F07EFB164B174A00930292CE
:104980000023012269468DF804308DF80C208DF843
:104990000D3001F0CDFF94F91000002180B202F03B
:1049A000E4FA06F07F012046FFF78EFF29462046F5
:1049B000FFF78AFF94F91000012180B202F0D5FAC6
:1049C00094F91330013303D102F054FB01F097FF47
:1049D00004B070BDB8970D0020A10700F8B590F89D
:1049E0003C509DF818609DF81CE09DF8207061F324
:1049F000871562F3020563F3C50590F8403080F82F
:104A00003C5066F3471380F8403090F838306EF32E
:104A1000C503044667F3020380F8383006F0070246
:104A2000F221FFF789FF94F83820C2F3C20302F0A5
:104A300007019B0043EA411343EAD2122046F521C5
:104A4000FFF77AFF94F83C20C2F3C20302F007019B
:104A50009B0043EA411343EA92122046F421BDE849
:104A6000F840FFF769BF000030B590F9103001330E
:104A700085B004460D4616D10179006801F071FC3D
:104A80002068036829469B689847206801F074FCF9
:104A900001222179206801F061FC206803685B69CC
:104AA0009847C5B232E090F91330013310D102F0CB
:104AB000E1FA184B184A009302920023012269463A
:104AC0008DF804308DF80C208DF80D3001F030FF9A
:104AD00094F91000002180B202F047FA45F08001FD
:104AE0002046FFF7F1FE00212046FFF7EDFE0546C8
:104AF00094F91000012180B202F037FA94F91330D2
:104B0000013303D102F0B6FA01F0F9FE284605B0F0
:104B100030BD00BFB8970D0020A1070030B590F957
:104B20001030013385B004460D461DD1017900686F
:104B300001F017FC2068036829469B6898472068A5
:104B400001F01AFC02222179206801F007FC20689C
:104B500003685B6998470546206803685B69984766
:104B600040EA052085B239E090F91330013310D1C5
:104B700002F080FA1B4B1C4A009302920023012290
:104B800069468DF804308DF80C208DF80D3001F059
:104B9000CFFE94F91000002180B202F0E6F945F052
:104BA00080012046FFF790FE00212046FFF78CFE93
:104BB000002105462046FFF787FE40EA052085B222
:104BC00094F91000012180B202F0CFF994F913306A
:104BD000013303D102F04EFA01F091FE284605B0F0
:104BE00030BD00BFB8970D0020A1070008B5FFF742
:104BF00095FF40BA80B208BD30B590F9103001334E
:104C000085B004460D4621D10179006801F0A9FB69
:104C10002068036829469B689847206801F0ACFB30
:104C200003222179206801F099FB206803685B6901
:104C300098470502206803685B6998472843050286
:104C4000206803685B69984705433DE090F913309D
:104C5000013310D102F00EFA1D4B1E4A009302924E
:104C60000023012269468DF804308DF80C208DF860
:104C70000D3001F05DFE94F91000002180B202F0C9
:104C800074F945F080012046FFF71EFE0021204602
:104C9000FFF71AFE002105022046FFF715FE284304
:104CA000050200212046FFF70FFE054394F910008E
:104CB000012180B202F059F994F91330013303D184
:104CC00002F0D8F901F01BFE284605B030BD00BF48
:104CD000B8970D0020A1070038B588210446FFF7DA
:104CE00085FF8A21A0822046FFF780FF8C21E08289
:104CF0002046FFF77BFF8E2120832046FFF776FFBB
:104D0000902160832046FFF771FF9221A083204607
:104D1000FFF76CFF9421E0832046FFF767FF9621A1
:104D200020842046FFF762FF982160842046FFF729
:104D30005DFF9A21A0842046FFF758FF9C21E08464
:104D40002046FFF753FF9E2120852046FFF74EFFA8
:104D5000A12160852046FFF787FEE12184F82C0021
:104D60002046FFF743FFE321E0852046FFF77CFE66
:104D7000E42184F830002046FFF776FEE521054661
:104D80002046FFF771FE00F00F0040EA0510608634
:104D9000E6212046FFF768FEE52105462046FFF79D
:104DA00063FE001140EA0510A086E7212046FFF7C8
:104DB0005BFE84F8360038BD08B5F321FFF754FEDA
:104DC00000F0010008BD30B5044690F91000421C07
:104DD00085B003D1206801F08DFA22E0012180B274
:104DE00002F0C3F894F91000012180B202F0ACF88F
:104DF00094F91300431C04D102F03CF901F06EFD5C
:104E00000FE0012180B202F09FF894F91100012116
:104E100080B202F099F894F91200002180B202F0F9
:104E200093F8D0212046FFF71FFE6028A06020D114
:104E30002046B622E021FFF77FFD4FF4967000F088
:104E40005FFE2046FFF7B8FF054608B16420F6E78D
:104E50002046FFF741FF052300931A460321204611
:104E600002950195FFF7BAFD642000F049FE01208C
:104E700000E0002005B030BD772310B50371044673
:104E800002F0D2F820602046FFF79DFF30B976236C
:104E900023712046BDE81040FFF795BF10BD00000C
:104EA00010B5FA210446FFF7A7FEB0F5000F1ED09B
:104EB000A28A9FED107AC2EB20235200C2EBE010D1
:104EC000B4F916205B435043B4F918201B13534325
:104ED0009B1303EBE020E06000EB800080300012C9
:104EE00007EE900AF8EEE77A87EE870A10BD9FED8D
:104EF000020A10BD0000C8420000C07F2DE9F84F33
:104F00000646FFF7CDFFF7213046FFF775FEB0F5F7
:104F1000000F074600F0C180F468B6F91C20E517C1
:104F2000B4F5FA3445F1FF35A4FB048904FB05F31D
:104F300009EB430902FB05F1D31704FB0311A2FBA4
:104F400004230B44190341EA12511003B6F91E2041
:104F5000D31702FB09FE08FB03EEA2FB08237344F0
:104F60004FEA122A4AEA036A1AEB000A728B4FEAE6
:104F7000232B4BEB010B1AF100004BF50041A0FB7A
:104F800002AB02FB01BB4FEA6B024FEAEB7352EA42
:104F9000030100F08680B6F924A04FEAEA7B0AFB01
:104FA00009F108FB0B11AAFB0889B6F922A0894474
:104FB0004FEAEA7B0AFB05F104FB0B11AAFB04454F
:104FC0000D444FEA454B4FEA444A38111AEB080AA0
:104FD000C0F580104BEAD43B4BEB090B4FEAE0796C
:104FE0004FEAC97545EA5005C407B6F920004FF0ED
:104FF000000818EB0A084FEAC00949EB0B0940F614
:105000003547B4EB080465EB0905A4FB070107FB72
:10501000051104F0BBF8B6F92A204C13450B45EAFC
:10502000C14502FB04F7D31705FB0377A2FB052359
:105030003B44544305FB0344A2FB05232344540E85
:1050400044EAC314B6F9282024184FEA63654D4199
:10505000D317514300FB0313A2FB00011944C20CF8
:1050600042EA41321219B6F926404FEAE1436B4158
:10507000100AE517220140EA036019122B0143EAE6
:1050800014738018594104F043F89FED080A07EEA5
:10509000900A27EE800ABDE8F88F9FED050ABDE86B
:1050A000F88F9FED040ABDE8F88F00BF0000803B39
:1050B0000000C07F0000000010B50446FFF7F0FEBE
:1050C000FD212046FFF72AFDB0F5004F38D0B4F996
:1050D0003230E268B4F934101B05A2F59632C3EB06
:1050E000803302FB113303F58043D91394F8303039
:1050F00094F936005343DB124243921203F5004306
:1051000053439B12B4F92E2003F50013534303F5C8
:1051100000539B134B43DA1394F82C105243D211D3
:105120004A43A3EB221323EAE373B3F1C85FA8BF9A
:105130004FF0C8531B1300EE103ABAEECB0A10BD65
:105140009FED010A10BD00BF0000C07F00F094BABF
:105150000368C9B29B68184710B50C4601F064FF9C
:105160003C2101F002F901F05FFF8021FFF7F0FF21
:1051700001F05AFF036821469B68984701F054FFED
:10518000BDE8104001F0F8B810B5AE210446FFF7B5
:10519000E3FF052000F0B4FCAF212046FFF7DCFF61
:1051A000052000F0ADFC2046A621BDE81040FFF729
:1051B000D3BF10B50123044603702021FFF7CCFFB5
:1051C00020460221BDE81040FFF7C6BF38B5503970
:1051D0001446C9B20546FFF7BFFFE100284601F0BB
:1051E0000801FFF7B9FFC4F3430128461031BDE8B9
:1051F0003840FFF7B1BF10B50C4601F015FF3C2158
:1052000001F0B3F801F010FF4021FFF7A1FF01F01A
:105210000BFF036821469B68984701F005FFBDE836
:10522000104001F0A9B80000A1F120035F2B0B4B47
:1052300088BF202170B56FF4807203EBC10503EBCA
:10524000C10306461544A3F1F90415F8011F3046C1
:10525000FFF7D1FFA542F8D170BD00BF01980D0046
:1052600070B5AE210546FFF777FF00260022F1B2A8
:105270002846FFF7ABFF102420212846013CFFF70A
:10528000D3FF14F0FF04F7D10136082EEED12846E3
:10529000AF21FFF761FF224621462846BDE8704056
:1052A000FFF794BF70B505460E460024E3B2013403
:1052B000F15C19B12846FFF7B7FFF7E770BDF0B50D
:1052C00085B000230E1E074601930293ADF80C3003
:1052D00007DA2D21FFF7A8FF7642012300240A21D7
:1052E00005E0FBD13021FFF79FFF01201DE004AA5C
:1052F000651C1444EDB296FBF1F201FB126604F852
:105300000C6C2C461646002AF1D12B44DCB25DB160
:1053100004AB2B44384613F80D1C3031C9B2013DA3
:10532000FFF782FFEDB2F2E7204605B0F0BDA621FF
:10533000FFF712BF00F0A0B910B5054B0360037C66
:1053400004461BB9406808B100F0AAFB204610BD16
:105350000C9B0D0010B50446FFF7EEFF204614210C
:1053600001F0ADFE204610BD10B5034B03600446AE
:10537000FFF7E2FF204610BD1C9B0D0010B5044650
:10538000FFF7F2FF2046302101F099FE204610BDC4
:1053900000230122C36043610276437680F82A30FD
:1053A00070470000002310B5C36001230374054B50
:1053B00003604FF0FF3341608260C362FFF7E8FF94
:1053C00010BD00BF1C9B0D00C368826810B59342DE
:1053D0003FBF42685C1CC460D15424BF012380F8E5
:1053E0002A3010BD10B54369044643B100EB4303B6
:1053F000597E09B1FFF7E8FF6369013B6361A36868
:10540000E068616898424FF000022ABF5B180A54B6
:1054100003F8012C10BD70B50446C068A568666825
:105420002D1A134630440A46294600F049FB8542AE
:105430002DBFE368A368E360C01836BF0123E060B6
:1054400084F82A3070BD0EB403B503AA52F8041BC9
:105450000192FFF7E0FF02B05DF804EB03B0704784
:105460002DE9F04104460E46174612B12221FFF7FE
:10547000ABFF0025715D06EB0508002971D0E268DD
:10548000A3689A426DD20B0633D501F0F003E02BEE
:1054900017D198F8013003F0C002802A11D105F12C
:1054A000020816F8082002F0C000802809D102F096
:1054B0003F029B0142EA013203F47C631A4392B239
:1054C00011E001F0E003C02B46D105F1010816F808
:1054D000083003F0C002802A3ED1890101F4F8624D
:1054E00003F03F031A4323492046FFF7ACFF45462C
:1054F00035E00C2918D00BD8092921D00A2919D058
:10550000082929D15C212046FFF75EFF622123E0B4
:1055100022291BD05C2919D00D291DD15C212046E0
:10552000FFF752FF722117E05C212046FFF74CFF86
:10553000662111E05C212046FFF746FF6E210BE05B
:105540005C212046FFF740FF742105E05C212046E6
:10555000FFF73AFF98F800102046FFF735FF0135B6
:1055600088E72FB120462221BDE8F041FFF72CBF8C
:10557000BDE8F081299B0D00426900EB42031A7ED1
:1055800012B100221A7670472C21FFF71DBFF8B523
:1055900043690133082B0E4617460ED8FFF7ECFF80
:1055A00043695A1C00EB43030124426131469C7657
:1055B000DF76FFF709FF2046F8BD0020F8BD0000A8
:1055C00037B5044610EE100AE56A002D0ADB03F039
:1055D0007BF92A46CDE9000108492046FFF733FF51
:1055E00003B030BD03F070F90B4605490246204672
:1055F00003B0BDE83040FFF726BF00BF3B9B0D0066
:10560000409B0D0000F038B808B5024B1B689B6842
:10561000019308BD4802030008B5024B1B681B69D3
:10562000019308BD4802030008B5024B1B685B6983
:10563000019308BD4802030008B5024B1B685B6C70
:10564000019308BD4802030008B5024B1B689B6C20
:10565000019308BD4802030008B5024B1B685B6854
:10566000019308BD1802030008B5024B1B685B6973
:10567000019308BD1802030008B5024B1B681B68A4
:10568000019308BD2C02030008B5024B1B685B6840
:10569000019308BD2C02030008B5024B1B689B68F0
:1056A000019308BD2C02030008B5024B1B68DB68A0
:1056B000019308BD2C02030008B5024B1B681B694F
:1056C000019308BD2C02030008B5024B1B685B69FF
:1056D000019308BD2C02030008B5024B1B681B6B2D
:1056E000019308BD2C02030008B5024B1B68DB6C5C
:1056F000019308BD2C02030008B5024B1B68DB6850
:10570000019308BD2802030008B5024B1B689B6982
:10571000019308BD2802030008B5024B1B68DB6932
:10572000019308BD2802030008B5024B1B681B6AE1
:10573000019308BD2802030008B5024B1B685B6A91
:10574000019308BD2802030008B5024B1B689B6A41
:10575000019308BD2802030008B5024B1B68DB6AF1
:10576000019308BD2802030008B5024B1B681B6BA0
:10577000019308BD2802030008B5024B1B685B6B50
:10578000019308BD2802030008B5024B1B681B6C7F
:10579000019308BD2802030008B5024B1B681B6D6E
:1057A000019308BD2802030008B5024B1B685B6922
:1057B000019308BD6402030008B5024B1B689B6897
:1057C000019308BD6802030008B5024B1B68DB6843
:1057D000019308BD6802030008B5024B1B681B68F3
:1057E000019308BD3002030008B5024B1B685B69DA
:1057F000019308BD3002030008B5024B1B68DB694A
:10580000019308BD3002030008B5024B1B681B6AF8
:10581000019308BD3002030008B5024B1B685B6AA8
:10582000019308BD3002030008B5024B1B68DB6B17
:10583000019308BD3002030008B5024B1B681B6CC6
:10584000019308BD3002030008B5024B1B685B6C76
:10585000019308BD3002030008B5024B1B681B68AA
:10586000019308BD3C02030008B5024B1B68DB68CE
:10587000019308BD3C02030008B5024B1B681B697D
:10588000019308BD3C02030008B5024B1B685B692D
:10589000019308BD3C02030008B5024B1B689B69DD
:1058A000019308BD3C02030008B5024B1B68DB698D
:1058B000019308BD3C02030008B5024B1B681B6A3C
:1058C000019308BD3C02030008B5024B1B689B6AAC
:1058D000019308BD3C02030008B5024B1B681B681E
:1058E000019308BD4C02030008B5024B1B685B68BE
:1058F000019308BD4C02030008B5024B1B681B69ED
:10590000019308BD4C02030008B5024B1B685B699C
:10591000019308BD4C02030008B5024B1B689B694C
:10592000019308BD4C02030008B5024B1B68DB69FC
:10593000019308BD4C02030008B5024B1B681B6AAB
:10594000019308BD4C02030008B5024B1B685B685D
:10595000019308BD2002030008B5024B1B685B6978
:10596000019308BD2002030008B5024B1B68DB6AE7
:10597000019308BD2002030008B5024B1B68DB6CD5
:10598000019308BD2002030008B5024B1B685B6D44
:10599000019308BD2002030008B5034B1B68D3F830
:1059A0008830019308BD00002002030008B5034BB6
:1059B0001B68D3F89430019308BD00002002030057
:1059C00008B5024B1B685B69019308BD44020300E4
:1059D00008B5024B1B681B6A019308BD4402030013
:1059E00008B5024B1B68DB6B019308BD4402030042
:1059F00008B5024B1B685B68019308BD40020300B9
:105A000008B5024B1B689B68019308BD4002030068
:105A100008B5024B1B68DB68019308BD4002030018
:105A200008B5024B1B681B69019308BD40020300C7
:105A300008B5024B1B685B69019308BD4002030077
:105A400008B5024B1B689B69019308BD4002030027
:105A500008B5024B1B68DB69019308BD40020300D7
:105A600008B5024B1B681B6A019308BD4002030086
:105A700008B5024B1B681B6B019308BD4002030075
:105A800008B5024B1B685B6B019308BD4002030025
:105A900008B5024B1B681B68019308BD1C0203007C
:105AA00008B5024B1B685B68019308BD1C0203002C
:105AB00008B5024B1B689B68019308BD1C020300DC
:105AC00008B5024B1B685B6A019308BD1C0203000A
:105AD00008B5024B1B68DB6A019308BD1C0203007A
:105AE00008B5024B1B681B6B019308BD1C02030029
:105AF00008B5024B1B68DB6B019308BD1C02030059
:105B00000021FFF729BF10B5836804460BB901F0E7
:105B1000F2FAC3689847A3681BB1032221462046C6
:105B2000984720461021BDE8104001F0C8BA10B5D2
:105B30000446006808B1FFF787FD204610BD10B588
:105B4000036804469B689847A368013BA3602BB990
:105B500023682046DB68BDE81040184710BD0B687D
:105B6000036013B15A6801325A60704710B5044699
:105B7000006828B14368013B43600BB9FFF7DFFFC2
:105B8000204610BD10B5064C002320462360FFF7C9
:105B900053FD2046034A0449BDE8104001F08ABA8B
:105BA000A4E4032020E403202F5B0D000022114613
:105BB0004068FFF735BF002211464068FFF750BF2D
:105BC000002211464068FFF75BBF00224068FFF7E4
:105BD0004FBF002281F001014068FFF739BF002369
:105BE0001A4619464068FFF72BBF00231A4619468C
:105BF0004068FFF71DBF002211464068FFF700BF55
:105C0000002202214068FFF703BF00231A464068C4
:105C1000FFF7EEBE38B5084C28252A46002120465D
:105C200003F091FC4FF0FF336360044B25800422A6
:105C30005A60034A1A6038BDB0E40320A8E4032088
:105C4000589B0D0070470020704710B51021044686
:105C500001F035FA204610BD08B508B1FFF7F5FF91
:105C600008BD10B58368044613B103220146984766
:105C7000204610BD0022026010B54FF69C72828053
:105C8000B1F9044084808A8002680C6804600A606C
:105C900010BD10B504460068FFF702FF204610BD96
:105CA00038B5C468F4B12378022B03D104F10C0099
:105CB000FFF7EFFF656835B12846FFF7D2FF1021E7
:105CC000284601F0FCF9A56835B12846FFF7C9FF61
:105CD0001021284601F0F3F920461421BDE8384090
:105CE00001F0EDB938BD13B5044691E80500002375
:105CF0004B600B602060626001A801930093FFF786
:105D000035FF204602B010BDF7B50C4602AD54F881
:105D1000043B45F8083D06460F4601A82146FFF71B
:105D20001EFF29463046FFF7DEFF01A8FFF71EFFE2
:105D30002046FFF71BFF3846082101F0C0F9304626
:105D400003B0F0BD13B50B46044603C88DE803004D
:105D500093E8030084E803009DE8030083E8030060
:105D600002B010BD38B500230446036010200D4674
:105D7000FEF793F928B1012343608360024B03606F
:105D8000C5602060204638BD8C9B0D00826810B530
:105D90000AB901F0B0F9C368BDE81040184708B56A
:105DA000006800F11001FFF7F1FF08BD826810B52F
:105DB0000AB901F0A0F9C368BDE81040184708B55A
:105DC000006800F11001FFF7F1FF08BD38B50023AE
:105DD00083608B6804460D462BB102229847EB681E
:105DE000E360AB68A360204638BD0000F0B589B021
:105DF00004686846FFF73EFF00238DF808304FF037
:105E00000202D4E84F3F002B03D1C4E8412F002900
:105E1000F7D102D08DF8083063E014F10C0503D0FF
:105E200069462846FFF726FFBFF35F8F01236370A3
:105E3000002004F10803BFF35F8F53E8006F43E8CD
:105E40000002002AF9D1BFF35F8F002E49D0FFF77F
:105E500093FD20B129463046FFF798FF3AE03146DE
:105E600002A8FFF7B3FFE068B4F9105008B103F0DF
:105E70009BFB06901020ADF81C50FEF70EF905466E
:105E8000E8B1002787601820FEF707F9044688B1BB
:105E90000146876002A8FFF755FF049BA268A36034
:105EA000059B049206A9E268E36004F110000592E4
:105EB000FFF7E0FE0D4BEB600D4B2C60AB6006A8CE
:105EC000FFF7E7FE02A8FFF7CCFE002229460948AB
:105ED000FFF75AFD3046FFF7C4FE1021304601F0AF
:105EE000EEF86846FFF7D5FE09B0F0BD9F5D0D00E6
:105EF00015600D00075B0D002DE9F04F8BB00646D5
:105F00000F46904699469DF850A0FFF759FD07AD02
:105F1000834630BB4FF62E73059005A92846ADF891
:105F20001830FFF7A7FE1420FEF7B7F8044658B163
:105F30000223037001234370C0F804B0C0F808B016
:105F400029460C30FFF796FE3046214640F8044BB8
:105F5000FFF708FF2846FFF79CFE05A8FFF799FE0C
:105F600052E000240C2314206C60AC600793FEF711
:105F700094F8014618B1047044704460846004A829
:105F80000391FFF7EFFE224B08930820FEF785F8F8
:105F9000044628B1039B40F8043B04A9FFF7DFFD4A
:105FA00000955FFA8AF34A46414638460994FFF75E
:105FB0000FFD20B9039B5B7803F0FF0283B1039BC5
:105FC000059304A906A8FFF7CAFD05A93046FFF707
:105FD0008AFE06A8FFF7CAFD04A8FFF7C7FD13E075
:105FE0004FF69C7305A903A80592ADF81830FFF78A
:105FF000FDFE05A8FFF74DFE05A80999FFF784FEF1
:1060000006A8FFF7B3FDDAE730460BB0BDE8F08F26
:1060100085610D00022AF8B5044606D0032A17D080
:10602000012A22D10B6803601FE018200E68FEF7DA
:1060300034F8054650B13146FFF7C8FE3069B6F96D
:10604000147008B103F0B0FA2861AF8225600CE04B
:10605000046854B104F11000FFF71BFE2046FFF75F
:1060600000FE1821204601F02AF80020F8BD38B5BE
:10607000002383608B6804460D462BB102229847AB
:10608000EB68E360AB68A360204638BD022A70B5B8
:10609000044606D0032A11D0012A18D10B680360E8
:1060A00015E014200E68FDF7F8FF054620B13146D3
:1060B000FFF7DDFF337C2B74256008E0046834B102
:1060C0002046FFF7CEFD1421204600F0F8FF002007
:1060D00070BD0000F0B5002387B00C46BFF35F8FA2
:1060E00050E8006F40E80032002AF9D1BFF35F8F1B
:1060F000002E3FD01846FFF73FFC074620B121464F
:106100003046FFF753FE2EE0314601A8FFF7AFFF00
:1061100023788DF814301020FDF7BFFF0546D0B16D
:1061200087601420FDF7B9FF044678B18760014607
:1061300001A8FFF707FE039BA268A360049B0392DC
:10614000E268E3609DF81430049223740A4BEB601C
:106150000A4B2C60AB6001A8FFF783FD00222946A3
:106160000748FFF711FC3046FFF77BFD1021304652
:1061700000F0A5FF07B0F0BDBF5D0D008D600D0004
:10618000075B0D0030B585B004460D4668461146E4
:10619000FFF7BAFD7CB124B228460DB103F004FA32
:1061A000029002A96846ADF80C40FFF71FFE02A856
:1061B000FFF76FFD1DE000988DF808404FF00102D9
:1061C000D0E84F3FA34203D1C0E8412F0029F7D1C7
:1061D00002D08DF808300CE010F10C014FF00103F3
:1061E00018BF0373BFF35F8F043000F8033CFFF761
:1061F00071FF01A8FFF7BAFC05B030BD00221146BF
:106200004068FFF72DBC002211464068FFF738BCFC
:1062100000224068FFF72CBC002281F00101406899
:10622000FFF716BC00231A4619464068FFF708BC62
:1062300000231A4619464068FFF7FABB00221146B0
:106240004068FFF7EDBB002211464068FFF7D8BB5E
:10625000002202214068FFF7DBBB00231A4640689A
:10626000FFF7C6BB024B03225A60024A1A6070470E
:10627000D8E40320A89B0D007047F8B506461546E4
:106280000C468F18BC4206D0336814F8011B9B687B
:1062900030469847F6E72846F8BD0022007CFFF715
:1062A00043BA0021007CFFF747BA0021007CFFF7CA
:1062B0004BBA0021007CFFF74FBA0021007CFFF7AA
:1062C00053BA10B51421044600F0F9FE204610BD63
:1062D00010B50446002363604FF47A73A360044B47
:1062E0002174084623601146FFF74EFA204610BD80
:1062F000DC9B0D0000231A461946007CFFF7FCB911
:1063000070B50C4686B0142506462A46002101A821
:1063100003F019F923788DF8083063680393E36874
:1063200004930022237A307CADF8045001A9059330
:10633000FFF732FA06B070BD1FB500338DF80010BC
:106340004FF06401039118BF0123694601928DF853
:106350000830FFF7D5FF05B05DF804FB0123FFF718
:10636000EBBF0022007CFFF7CFB9C9B2FFF7F9BF3E
:106370000022007CFFF7D0B90121FFF7F9BF00210F
:10638000007CFFF7F9B9704710B51821044600F0FA
:1063900096FE204610BDF0B5037D062B8DB00E464F
:1063A00000F104074FF0000402D000F1080518E0E6
:1063B0000CAD394605F8304D2F232A460A20FFF749
:1063C000F3F9284603F00BF933680246DB682946E7
:1063D000304698470FE024B12E21304600F0DAF91C
:1063E000044415F8011D0A22304600F0ECF9BD42C4
:1063F0000444F0D120460DB0F0BD000010B5054BAF
:106400000446112240F8043B002103F09CF820468A
:1064100010BD00BF049C0D000346074A10B543F8A9
:10642000042B01F1100251F8044B43F8044B914244
:10643000F9D10A781A7010BD049C0D0010B59DF8B2
:10644000084044EA032343EA024242EA016104238A
:106450004160037510BD37B50D788B784A78C978DF
:1064600000912946FFF7EAFF03B030BD014B024A15
:106470001A607047E0E40320839C0D00002211465F
:106480004068FFF7EDBA002211464068FFF7F8BAFE
:1064900000224068FFF7ECBA002281F00101406859
:1064A000FFF7D6BA00231A4601214068FFF7C8BAA1
:1064B00000231A4619464068FFF7BABA002211466F
:1064C0004068FFF7ADBA002211464068FFF798BA5E
:1064D000002202214068FFF79BBA00231A46406859
:1064E000FFF786BA38B5054688B104684CB1A36891
:1064F0001BB103222146204698471021204600F078
:10650000DEFD28461421BDE8384000F0D8BD38BD76
:1065100010B103685B681847704710B503680446FC
:10652000BBB15868FFF770F878B923685A7C12B984
:106530005868FFF771F823685868FFF775F8206806
:106540000023236028B1FFF7CDFF206808B1FFF7D3
:10655000C9FF204610BD38B50446D0F8C40108B1C3
:10656000FDF79FFDD4F8C00108B1FFF76DF8D4F82E
:10657000BC5135B12846FFF7D0FF0421284600F072
:106580009EFD206808B1FFF7C3FF204638BD00001C
:1065900010B5044B044640F8083BFFF7DCFF2046EB
:1065A00010BD00BFF49C0D0038B50E4C0E4B23609F
:1065B0000025022304F5E4706360A560C4F8C451AB
:1065C000C4F8C851FFF738F8084BC4F8CC5184F828
:1065D000D05123602046064A0649BDE8384000F005
:1065E00069BD00BFE4E40320289D0D00F49C0D006C
:1065F00020E4032091650D0000231A464068FFF750
:10660000F7B9002202214068FFF702BA00221146C2
:106610004068FFF7F5B9002211464068FFF700BA5D
:1066200000231A4619464068FFF702BA00231A46AB
:1066300019464068FFF704BA002281F00101406862
:10664000FFF706BA00224068FFF712BA002211468F
:106650004068FFF715BA002211464068FFF700BAFC
:106660002DE9F043002495B016460D460746FFF786
:10667000C5FE214620220CA8009402F064FF4023AE
:106680000C9321466B460CAA3046FFF79DF8044652
:10669000002844D1024601216868FFF7C1F90221B0
:1066A000804622466868FFF7BBF9009E8146214676
:1066B000002E34D0002932D17368022B02D00A2B6D
:1066C00009D02AE0B8F1000F27D0716938460431AB
:1066D000FFF7C1FE20E0B9F1000F1ED0746911224E
:1066E00001A802F030FF06238DF8143001AD04F14B
:1066F00008031834186859682A4603C20833A342AD
:106700001546F7D101A906A807ADFFF785FE0FCD05
:106710003C1D0FC42B6823700121F669C8E700985F
:10672000FFF74AF8384615B0BDE8F083024B034A3C
:106730001A6000225A607047B8E60320289D0D00B9
:10674000F8B506460D468F180024BD420CD03368BC
:1067500015F8011B9B6830469847002801DB04446C
:10676000F3E7002C08BF04462046F8BD70B5054687
:106770000C46084649B102F032FF2B68024621461A
:106780002846DB68BDE87040184770BD08B5FFF7C4
:10679000EDFF08BD03689B68184738B50D21054615
:1067A000FFF7F8FF0A2104462846FFF7F3FF2044CD
:1067B00038BD38B50546FFF7D9FF04462846FFF730
:1067C000ECFF204438BD30B58BB00B4600218DF86E
:1067D0002410012A98BF0A220DF12304B3FBF2F51D
:1067E00005FB123303F0FF03092B94BF303337331B
:1067F000DBB2214604F801392B46002DEED1FFF71C
:10680000B5FF0BB030BD0CB42DE9F04387B000AF3D
:1068100007F13804054654F8049B3C600E462346B5
:106820004A461421381DFFF74BF9132805D8391DA6
:106830002846FFF79BFF044613E000F1080323F00E
:106840000703E846ADEB030D411C23464A46684664
:106850003C60FFF735F969462846FFF787FF044695
:10686000C5461EB12846FFF798FF044420461C3752
:10687000BD46BDE8F04302B0704710B50446FFF7CF
:10688000F0F9204610BD00000348044A04490023E3
:10689000836000F00FBC00BFC0E6032020E40320AB
:1068A0007B680D00704710B50C21044600F007FC12
:1068B000204610BD0021FEF7BFBF0021FEF7C4BF78
:1068C00010B5054B0360044601710846FEF794FFBE
:1068D0000023A360204610BD5C9D0D0010B504464A
:1068E0000079FFF7E7FF48B920794FF6FF71FEF70F
:1068F00073FF2079BDE81040FFF7DFBF10BD0079BE
:10690000FFF7DBBF400830B51860002418688842E4
:10691000E5B206D90134082C02D040081860F5E72A
:106920000725024B5B5D137030BD00BF649D0D00F9
:106930002DE9F04307468FB000790E46FFF7BAFF06
:10694000002862DB3C791422002109A802F0FBFD3B
:106950000B232046002209A9ADF82430FEF75CFF86
:106960009DF82D4054B19DF82C5035B9DDF830809C
:106970009DF834909DF8354003E00024A146A046E0
:106980000125337905B1BBB99D420BD1B2684245AF
:1069900008D18DF820908DF82140BDF82010B289E3
:1069A000914209D053B100243879019400942346D0
:1069B00022460121FEF738FF002026E08DF80F3037
:1069C000B1680A9804AB0DF10F02FFF79BFF317914
:1069D00005B1B1B9A94208D0002438790194747B7B
:1069E000337B9DF80F200094E4E7B3684345F3D36D
:1069F0008DF820908DF82140BDF82020B3899A426F
:106A0000EAD1049B4345E7D1D6E70FB0BDE8F08358
:106A100038B5044600790D46FFF74CFF40B92946CA
:106A20002079FEF7E1FE05462079FFF746FF00E0FA
:106A30000025E8B238BD0079FEF7E6BE10B5044681
:106A40000068FFF72DF8204610BD10B50446006819
:106A500008B1FFF725F800232360A360636010BD31
:106A600038B504460D4600680131FFF721F810B132
:106A700084E82100012038BD10B50368044613B135
:106A800043688B4207D22046FFF7EAFF20B1A36894
:106A90000BB922681370012010BD70B50E46114667
:106AA00004461546FFF7E8FF18B92046FFF7CDFF6B
:106AB00009E02A463146A560206802F039FD2268C7
:106AC000A3680021D154204670BD38B50023044688
:106AD00003604360836003730D4639B1084602F0DA
:106AE0007EFD294602462046FFF7D7FF204638BDE7
:106AF000884210B50B46044607D0096819B19A6858
:106B0000FFF7CBFF01E0FFF7A0FF204610BD10B557
:106B1000002304460360436083600373FFF7E8FFCC
:106B2000204610BD38B505460C4641B1084602F076
:106B300056FD214602462846FFF7AFFF01E0FFF76A
:106B400084FF284638BD10B50446006818B1FEF72A
:106B5000A7FF0023236010BD10B50446FFF7F3FF25
:106B6000204610BD10B5094C00204FF6FF73206081
:106B7000A080A07120816381FEF7E6FE2046044AD2
:106B80000449BDE8104000F095BA00BFD0E60320EC
:106B900020E40320596B0D00024B1A68024B1A6067
:106BA000704700BFB4E30320DCE603207047417464
:106BB000704708B5007CFEF787FE20EAE07008BD4C
:106BC00008B5007CFEF758FE20EAE07008BD08B565
:106BD000007CFEF761FE30EA200028BF4FF0FF3056
:106BE00008BD08B5007CFEF74FFE30EA200028BF44
:106BF0004FF0FF3008BD007CFEF756BE10B51421E3
:106C0000044600F05CFA204610BD70B5457C044691
:106C10000E4625B9007CFEF757FE002805DD3146FB
:106C2000207CBDE87040FEF71FBE284670BD000006
:106C300010B5044608461146002262604FF47A728D
:106C4000A260054A22600122207462741A46FEF78F
:106C500003FE204610BD00BFA09D0D00007CFEF786
:106C60002BBE0000F8B5194C25684DB98420FDF7FE
:106C700014FA064618B18422294602F064FC266004
:106C8000134D2E684EB98420FDF707FA074618B158
:106C90008422314602F057FC2F600E4F396811F004
:106CA000010611D13846FDF7FEF968B122682B685C
:106CB00009483146FFF7BCFF3846FDF7F9F9074AA6
:106CC0000749054800F0F6F90348F8BDFCE6032043
:106CD000F4E60320F8E60320E0E6032020E40320A6
:106CE000AD6B0D0041747047704708B50021007C02
:106CF000FEF712FE30EA200028BF4FF0FF3008BD3B
:106D000008B50121007CFEF707FE30EA200028BF0D
:106D10004FF0FF3008BD08B5007CFEF7F5FD20EA16
:106D2000E07008BD08B5007CFEF7E6FD20EAE070E3
:106D300008BD007CFEF700BE10B51421044600F02B
:106D4000BEF9204610BD38B50446007C0D46FEF75E
:106D5000DBFD002801DC607C28B12946207CFEF7A1
:106D6000E3FD20EAE07038BD10B5044600236360FF
:106D70004FF47A73A360054B236001230846217406
:106D800063741146FEF7A8FD204610BDD09D0D008E
:106D90000022007CFEF7A8BD10B514220446002195
:106DA00002F0D1FB204610BD30B50E4D87B001A8D2
:106DB000FFF7F2FF296811F0010410D12846FDF712
:106DC00072F960B101AA21460748FFF7CDFF2846B6
:106DD000FDF76EF9054A0649034800F06BF90248D1
:106DE00007B030BD00E7032004E7032020E40320C0
:106DF000E96C0D0008B50C4B33B1FFF7D5FF036804
:106E00001B699847002809DC084B63B1FFF72AFF8C
:106E100003681B699847002803DC08BDAFF30080B6
:106E2000F2E7AFF3008008BD0000000000000000A2
:106E300008B5FFF7DFFFFEF717FC014B186008BD30
:106E400020E703200248034A0349121A02F070BBEC
:106E500000F4032004F40320C89E0D0007B50023AE
:106E600000931A466FF07701FEF7A0FD03B05DF8BE
:106E700004FB000007B543880A2B08D0502B09D12A
:106E8000094B1B683BB103B05DF804EB1847FFF7F3
:106E9000E5FF06E0002300931A466FF07701FEF746
:106EA00085FD03B05DF804FB18E7032038B5104CEE
:106EB000104D2368AB42104B0CBF012200221A7008
:106EC00002D0FFF7BFFF2560FEF7C6FB044602F0C5
:106ED00043FB0A4B13B12046AFF300800021074863
:106EE000FEF77EFD00210648BDE83840FEF754BDA0
:106EF00000F403201E1C279A1CE70320000000005A
:106F0000756E0D0010B5044600F0B4F8FFF793FD60
:106F100028B1A4F10B03022B01D8002010BD00F012
:106F200083F8FFF72CFA08B1012CF6D9FFF79AFE87
:106F3000FFF794FE18B1A4F10903012BEDD9232C1E
:106F40008CBF0020012010BD232838B504460D4613
:106F50000AD8FF2908D0FFF7D5FF28B129462046D7
:106F6000BDE83840FEF798BB38BD38B504460D463D
:106F7000FEF79AFBFF2810D0062804D84D2323FAE9
:106F800000F0C30709D42046FFF7BCFF28B129460B
:106F90002046BDE83840FEF78FBB38BD10B504462B
:106FA000FEF782FB0438C0B2012808D92046FFF75B
:106FB000A9FF20B12046BDE81040FEF785BB0020A8
:106FC00010BD0D2810B504469CBF0E34A4B2204657
:106FD000FFF798FF50B103212046FEF755FB032829
:106FE00004D12046BDE81040FEF776BB002010BD5E
:106FF000FEF77ABB70B5044614252A46094E0021D7
:1070000002F0A1FA258020253146A5602561284699
:1070100000F06FF831466060284600F06AF8E060E2
:10702000204670BDF89D0D0030B50E4D296811F059
:10703000010487B013D12846FDF735F878B101A8CF
:10704000FFF7D8FF01AA21460748FFF741F9284674
:10705000FDF72EF8054A0649034800F02BF80248D0
:1070600007B030BD24E7032028E7032020E40320F5
:1070700079620D0038B50B4D296811F001040FD16C
:107080002846FDF710F858B121460748FFF718FCCD
:107090002846FDF70DF8054A0549034800F00AF8AF
:1070A000014838BD48E703203CE7032020E40320E3
:1070B000A5680D000B460146184602F02BBAFCF7F6
:1070C000EEBF0000024B1868BFF35F8F704700BF30
:1070D0004CE7032010B5002814BF044601242046C5
:1070E000FEF7D6FC20B9FFF7EDFF08B18047F6E7C1
:1070F00010BDFFF7EFBF08B5FEF7EAFC244B1A6896
:10710000D0075CBF01221A60224B1A68D1075CBF0E
:1071100001221A60204B1A68D2075CBF01221A6054
:107120001E4B1A68D0075CBF01221A601C4B1A68FC
:10713000D1075CBF01221A601A4B1A68D2075CBFE4
:1071400001221A60184B1A68D0075CBF01221A602E
:10715000164B1A68D1075CBF01221A60144B1A68DB
:10716000D2075CBF01221A60124B1A68D0075CBFBD
:1071700001221A60104B1A68D1075CBF01221A6005
:107180000E4B1A68D2075CBF01221A60704700BF1D
:107190007CE7032078E7032074E7032070E70320EF
:1071A0006CE7032068E7032064E7032060E703201F
:1071B0005CE7032058E7032054E7032050E703204F
:1071C000184B1A68D1075CBF01221A60164B1A6867
:1071D000D2075CBF01221A60144B1A68D0075CBF4B
:1071E00001221A60124B1A68D1075CBF01221A6093
:1071F000104B1A68D2075CBF01221A600E4B1A6846
:10720000D0075CBF01221A600C4B1A68D1075CBF23
:1072100001221A600A4B1A68D2075CBF01221A6069
:10722000704700BF9CE7032098E7032094E7032002
:1072300090E703208CE7032088E7032084E70320FE
:1072400080E70320184B1A68D1075CBF01221A603F
:10725000164B1A68D2075CBF01221A60144B1A68D9
:10726000D0075CBF01221A60124B1A68D1075CBFBD
:1072700001221A60104B1A68D2075CBF01221A6003
:107280000E4B1A68D0075CBF01221A600C4B1A68BB
:10729000D1075CBF01221A600A4B1A68D2075CBF93
:1072A00001221A60704700BFBCE70320B8E7032043
:1072B000B4E70320B0E70320ACE70320A8E70320EE
:1072C000A4E70320A0E70320244B1A68D0075CBF83
:1072D00001221A60224B1A68D1075CBF01221A6092
:1072E000204B1A68D2075CBF01221A601E4B1A6835
:1072F000D0075CBF01221A601C4B1A68D1075CBF23
:1073000001221A601A4B1A68D2075CBF01221A6068
:10731000184B1A68D0075CBF01221A60164B1A6816
:10732000D1075CBF01221A60144B1A68D2075CBFF8
:1073300001221A60124B1A68D0075CBF01221A6042
:10734000104B1A68D1075CBF01221A600E4B1A68F5
:10735000D2075CBF01221A60704700BFECE7032030
:10736000E8E70320E4E70320E0E70320DCE703206D
:10737000D8E70320D4E70320D0E70320CCE703209D
:10738000C8E70320C4E70320C0E703200000000093
:107390002DE9F04F2DED028BDFF824A38BB057ECD5
:1073A000106B55EC114B00F08FF99AF90080B0EE9C
:1073B000408AF0EE608AB8F1FF3F48D022462B4663
:1073C0002046294601F06EFD834600283FD1324613
:1073D0003B463046394601F065FD8146002840F0C5
:1073E0009080304639460022002301F029FD002814
:1073F00036D0002200232046294601F021FD834695
:10740000B8B19FEDA57B0122A94BCDF82090009249
:10741000CDE90267CDE904458DED067B0193B8F116
:10742000000F5BD09FED9E0B0BB0BDEC028BBDE857
:10743000F08F45EC104B00F0A7FF40B10022002375
:107440002046294601F006FD002840F0C580B0EE38
:10745000480AF0EE680A0BB0BDEC028BBDE8F08F75
:10746000B0EE480AF0EE680A00F08EFF8046002871
:1074700061D04FF000084FF0000951EC180B424664
:107480004B4601F0DDFC0028E1D047EC106B00F02A
:107490007BFF0028DBD045EC104B00F075FF002887
:1074A000D5D09AF90030824A019204210022022BA1
:1074B000CDE90267CDE90445CDE90689009108923E
:1074C00003D0684600F068FF70B9FEF711FB222375
:1074D000036009E09FED707B8DED067B684600F050
:1074E0005BFF002800F08E80089B1BB1FEF700FBBD
:1074F000089B03609DED060B0BB0BDEC028BBDE855
:10750000F08F002200232046294601F099FC002834
:107510009DD09FED630B664BCDF820B00122B8F1F2
:10752000020FCDE90267CDE904458DED060B8DE82C
:107530000C00D3D18FE747EC106B00F025FF00283B
:1075400097D045EC104B00F01FFF002891D053EC72
:10755000182B18EE100A194601F0A4FC00287CD163
:1075600003239AF900800093514B0890CDE90267FC
:10757000CDE904450193B8F1000F48D1DFF84491FB
:107580004FF060480022002330463946CDE9068995
:1075900001F060FC002894D00022464B204629468A
:1075A00001F0E6F904460D4645EC104B00F000FFF3
:1075B000204653EC102B294601F042FC002849D10B
:1075C0003D4B9AF900804FF06042CDE90623B8F1B7
:1075D000020F7FF476AF78E7354A9AF90030CDF89C
:1075E00020B00121CDE90267CDE904458DE8060010
:1075F000002B3FF46FAF31490020022BCDE906018B
:107600007FF46CAFFEF774FA212303606CE79FED03
:10761000267B00220023304639468DED067B01F0A3
:1076200019FC0028D3D00022224B2046294601F025
:107630009FF904460D4645EC104B00F0B9FE20467C
:1076400053EC102B294601F0FBFB18B91B4B002211
:10765000CDE906239AF90080B9E7154B9AF9009015
:10766000CDF820800122CDE90267CDE904458DE8FF
:107670000C00B9F1000F3FF42DAF0022002310469B
:10768000194601F09FFAB9F1020FCDE90601B9D010
:1076900024E700BFAFF300800000000000000000FE
:1076A000000000000000F03F000000000000F07F3C
:1076B000FC9D0D000000E03FFFFFEFC70000F0FF62
:1076C000B8E30320FFFFEF472DE9F04F51EC110B1A
:1076D00021F0004858EA000493B03CD053EC102B42
:1076E0006D4E23F00044B44210EE10AA1D462BDC70
:1076F000894611EE10EA26D0B04525DC664EB0452D
:1077000077D0002D16461F46CDE9000175DB4FF0FE
:10771000000BBEF1000F2DD15F4B984500F0898022
:107720005E4B98455ED0B9F1804F00F0DE835C4B34
:1077300099451FD1002D1DDB47EC106B13B0BDE840
:10774000F04F00F049BD5AB104F1404404F58014F3
:1077500054EA0A0306D19FED4A0B13B0BDE8F08F3F
:10776000A045CBDD4F4813B0BDE8F04F00F018BE88
:107770004FF0000B47EC106B00F0FEFD51EC100BCE
:10778000BAF1000F1ED0ED0F05F1FF3A5BEA0A03D4
:1077900063D0454B984540F38D8003F104739845C1
:1077A00040F33884414B9C4262DDB9F1000F62DD49
:1077B00035A3D3E900231046194601F0D9F841EC6E
:1077C000100BCAE724B1354B25F040429A42DAD17A
:1077D000B9F1000FC0F2CB83002DC0F2748341ECED
:1077E000100BBAE7B9F1000FC0F27A8447EC106BC6
:1077F000B3E7BEF1000F84D0A6E72D4B984529DCF6
:10780000A3F15473984582DD4FEA2853A3F2FF3366
:10781000142B40F37F84C3F134032EFA03F202FAEF
:1078200003F39E457FF473AF02F00102C2F1020B35
:107830006FE704F1404303F5801353EA0A038AD04B
:107840001A4B9C4240F38583B9F1000F13DB9DED89
:10785000000B82E74FF0020B5BE732463B461046D7
:10786000194600F0D1FE02460B4601F0ABF9B6E72F
:10787000B9F1000F9CDB9FED060B6EE7AFF30080C4
:10788000000000000000F03F9C7500883CE4377E5B
:1078900000000000000000000000F07F0000F03F4A
:1078A0000000E03F009E0D000000E041FFFFEF3FC1
:1078B000FFFF3F43B4F5801F4FF0000205DAD64BBF
:1078C00001F056F86FF034020C462315D34EC4F382
:1078D0001304A3F2FF33134444F07F55B4421A4615
:1078E0000D9345F4401540F34983CD4B9C4240F342
:1078F0002D849FEDB37B8DED087B8DED0E7B9FED91
:10790000B27B13468DED067B01330D93A5F58015F3
:107910004FF00008DDE906232946CDE90A0100F011
:1079200073FEDDE9062306460F46DDE90A0100F095
:107930006DFE02460B460020BA4901F043F90346AA
:107940000C46CDE9103402460B463046394601F06C
:107950000FF86B1043F0005303F5002303EB080509
:107960000A4600230146CDE902120293DDE90289AD
:107970000024CDE904122B4622464046494600F039
:10798000F7FF02460B463046394600F03DFEDDE982
:10799000062306460F462046294600F035FE0246DD
:1079A0000B46DDE90A0100F02FFE42464B4600F08F
:1079B000DFFF02460B463046394600F025FEDDE982
:1079C000102300F0D5FFDDE90445CDE9060122468C
:1079D0002B462046294600F0CBFF7DA3D3E90023A8
:1079E00004460D4600F0C4FF7BA3D3E9002300F05A
:1079F0000DFE22462B4600F0BBFF79A3D3E90023FE
:107A000000F004FE22462B4600F0B2FF76A3D3E935
:107A1000002300F0FBFD22462B4600F0A9FF74A3D3
:107A2000D3E9002300F0F2FD22462B4600F0A0FF30
:107A300071A3D3E9002300F0E9FD224606460F4674
:107A40002B462046294600F093FF02460B4630465F
:107A5000394600F08DFF424604460D464B46DDE9AF
:107A6000040100F0D3FDDDE9062300F081FF22468A
:107A70002B4600F0CBFD424606460F464B4640469D
:107A8000494600F075FF0022674BCDE90A0100F07E
:107A9000BDFD32463B4600F0B9FD02980D46044656
:107AA00022462B464046494600F062FF00228046AF
:107AB00089465D4B2046294600F0A6FDDDE90A23F4
:107AC00000F0A2FD02460B463046394600F09CFD10
:107AD000DDE9042300F04CFF224606460F462B4604
:107AE000DDE9060100F044FF02460B463046394608
:107AF00000F08CFD06460F4602460B4640464946BE
:107B0000CDE9048900F082FD02983DA3D3E900236A
:107B100004460D4600F02CFFDDE90423804689462B
:107B20002046294600F070FD02460B463046394695
:107B300000F06AFD34A3D3E9002300F019FF34A359
:107B4000D3E9002306460F462046294600F010FFE1
:107B500002460B463046394600F058FDDDE90E235B
:107B600000F054FD06460D980F4600F09BFE32468D
:107B700004460D463B464046494600F047FDDDE9D8
:107B8000082300F043FD22462B4600F03FFD0298FB
:107B900022462B46CDE9020100F036FDDDE908233F
:107BA00000F032FD42464B4600F02EFD02460B46E9
:107BB0003046394600F028FD8046894636E000BF51
:107BC0000000000000000000000000000000F03F86
:107BD000EF4E454A287ECA3F65DBC9934A86CD3FB2
:107BE00001411DA96074D13F4D268F515555D53F98
:107BF000FFAB6FDBB66DDB3F033333333333E33F30
:107C0000000000E009C7EE3FFD033ADC09C7EE3F84
:107C1000F5015B14E02F3EBE000040438E98030048
:107C200079B60B000000F03F000008400BF1FF3375
:107C300053EA0A0300F088819FEDD77B8DED067B28
:107C4000DDE900AB53465C46CDE9003400230093E8
:107C5000DDE90045504622462B46594600F0D4FC4B
:107C6000DDE9022300F084FE524606460F465B46DD
:107C70004046494600F07CFE02460B4630463946F7
:107C800000F0C4FC2246804689462B46DDE902010D
:107C9000CDE9048900F06CFE0B46024606460F460D
:107CA0004046494600F0B2FCD54B994204460D4689
:107CB0008A4640F3238101F13F4303F5E003034388
:107CC00040F01882B6A3D3E90023DDE9040100F0F7
:107CD0009DFC3246804689463B462046294600F0B8
:107CE00093FC02460B464046494601F0D1F8002875
:107CF00040F00082A8464FEA28534FF48012A3F2C6
:107D0000FE3342FA03F35344C3F30A52BD4DA2F2C9
:107D1000FF321541C3F3130B0020C2F1140423EA10
:107D200005014BF4801BBAF1000F02460B464BFADB
:107D300004FB30463946B8BFCBF1000B00F064FCC1
:107D400002460B4606460F46DDE9040100F05EFCE4
:107D50004FEA0B5A002494A3D3E9002320460D4692
:107D600000F006FE3246804689463B4620462946BC
:107D700000F04AFC02460B46DDE9040100F044FC39
:107D80008BA3D3E9002300F0F3FD8BA3D3E90023F9
:107D900006460F462046294600F0EAFD02460B46FD
:107DA0003046394600F032FC06460F4602460B4686
:107DB0004046494600F02AFC42464B4604460D46E2
:107DC00000F022FC02460B463046394600F01CFC0F
:107DD0002246804689462B462046294600F0C8FDAB
:107DE00077A3D3E9002306460F4600F0C1FD76A332
:107DF000D3E9002300F008FC32463B4600F0B8FD12
:107E000073A3D3E9002300F001FC32463B4600F0A7
:107E1000AFFD71A3D3E9002300F0F6FB32463B46E9
:107E200000F0A6FD6EA3D3E9002300F0EFFB32467D
:107E30003B4600F09DFD02460B462046294600F0D9
:107E4000E3FB06460F4602460B462046294600F055
:107E50008FFD0022CDE900014FF0804330463946C6
:107E600000F0D2FB02460B46DDE9000100F0AAFE5D
:107E7000424606460F464B462046294600F078FD0E
:107E800042464B4600F0C2FB02460B46304639469E
:107E900000F0BAFB22462B4600F0B6FB02460B462A
:107EA0000020594900F0B0FB8A44BAF5801F024611
:107EB0000B46C0F25B815146DDE9062300F058FD18
:107EC00041EC100B49E404F1404404F5801454EAF9
:107ED0000B0300F03781BBF1010F7FF480AC024649
:107EE00001F1004343EC102B37E432463B46304669
:107EF000394600F03DFD41EC100B2EE4434B21F0E0
:107F00000048984540F31581414B0B4403430CD185
:107F100032463B4600F078FB02460B46DDE90401A1
:107F200000F0A2FF00283FF4E6AE2FA3D3E9002320
:107F3000DDE9060100F01CFD2BA3D3E9002300F0CE
:107F400017FD41EC100B08E49FED297B8DED067BBE
:107F500076E6B9F1000FBFF68EACDDE9003400EE35
:107F6000103A04F1004300EE903AFFF7F6BB0246E8
:107F70000B460020244900F025FE2DE49FED1E7BDA
:107F80008DED087B8DED0E7B9FED037B4FF00008A0
:107F90008DED067BBEE400BF000000000000F03F56
:107FA000FE822B654715973C00000000432EE63FFC
:107FB000EF39FAFE422EE63F396CA80C615C20BE18
:107FC000D0A4BE726937663EF16BD2C541BDBB3EDF
:107FD0002CDE25AF6A56113F93BDBE166CC1663FBD
:107FE0003E5555555555C53F59F3F8C21F6EA5016D
:107FF000000000000000F0BF0000000000000000D2
:10800000FFFF8F40FFFF0F000000F03FFFCB9040CD
:1080100000346F3F6C4B9C427FF72AAC6B4B9C4209
:108020003FF7C3AB0022694B00F0EEFA56A3D3E949
:10803000002304460D4600F09BFC55A3D3E9002322
:10804000804689462046294600F092FC0022CDE970
:1080500002015F4B2046294600F08AFC02460B468F
:108060004DA1D1E9000100F0CFFA22462B4600F0E5
:108070007FFC02460B460020564900F0C5FA224616
:108080002B4606460F462046294600F071FC024664
:108090000B463046394600F06BFC41A3D3E9002380
:1080A00000F066FC02460B46DDE9020100F0ACFA86
:1080B00002460B4604460D464046494600F0A6FAE5
:1080C00042464B460020CDE9020100F09DFA0246EF
:1080D0000B462046294600F097FA80468946A5E5DA
:1080E00032463B460020394900F06CFD41EC100B54
:1080F000FFF733BB2CA3D3E90023DDE9060100F031
:1081000037FC29A3D3E9002300F032FC41EC100B2B
:10811000FFF723BBBEF1000F7FF42AABC3F11403BA
:1081200048FA03F202FA03F3984527D0F346FFF723
:10813000F7BA284B98453FF7DEADDDE900349A46A3
:108140009B4607E602460B46FFF789BB9FED187B6F
:108150008DED087B9FED187B8DED0E7B9FED187BE1
:108160004FF480288DED067BFFF7D4BB584643ECD7
:10817000102B00F0B1F951EC100B9DE602F001025A
:10818000C2F1020BFFF7CCBA000000604715F73FC1
:1081900044DF5DF80BAE543E555555555555D53F0A
:1081A000FE822B654715F73F9C7500883CE4377EBF
:1081B0000000004003B8E23F06D0CF43EBFD4C3E49
:1081C000000000000000F83FFEFFEF3F0000F03F1E
:1081D0000000D03F0000E03F2DE9F041654955EC3B
:1081E000104B0E462940B14200F09780002D2B46DF
:1081F00010EE102A74DD2F157FD0A7F2FF37C3F3DE
:108200001303F90743F4801365D403EBD2710026FE
:108210000B447F105200B64616204FF400110EEBAF
:1082200001049C424FEAD2754FEA420203DC1B1B59
:1082300004EB010E0E44013805EB43034FEA5101F4
:10824000EDD1844620244FF0004109E020D003EB1B
:10825000D275013C4FEA51012B444FEA420220D033
:108260009E4501EB0C05F1DA002D05EB010C09DB55
:10827000F0469542CEEB030300D9013B521B084464
:10828000C646E4E7BCF1000FF2DB0EF10108F0E7AF
:1082900095421ED8002D05EB010C50DB98460023BB
:1082A000ECE7134304D0421C4DD000F00103184406
:1082B00040087110F30701F17F5101F5001148BF2B
:1082C00040F0004001EB0753024643EC102BBDE8A1
:1082D000F0817346BBE75B0003EBD273520094E777
:1082E00025F00041214328D0ADBB2F46D30A153FCE
:1082F0005205002BFAD0DD0228D4002100E001460F
:108300005B00DC0201F10100F9D5C0F1200422FA82
:1083100004F423437F1A82406FE710EE102A2B46A5
:1083200010EE100A294600F023FB22462B4600F0EF
:108330006DF941EC100BBDE8F081BDE8F081BCF1B6
:10834000000FA2DAAAE701362046B2E720244FF058
:10835000FF310020DBE710EE102A2B46204629468D
:1083600000F052F902460B4600F02CFC41EC100BD9
:10837000BDE8F0810000F07F53EC102B23F00043A8
:1083800043EC102B704700BF10EE903A43F00040D2
:1083900000F58010C00F70470020704700000000FB
:1083A0009FED010B704700BF000000000000F87F48
:1083B000F0B553EC102BC3F30A56A6F2FF30132886
:1083C00083B019464FEAD37410EE105A2FDC002800
:1083D00049DB3F4E064103EA060717432CD07608D7
:1083E00033401D430CD04FF48023132821EA0606A6
:1083F00043FA00F141EA06010CBF4FF000450025A9
:10840000344800EBC4042A46D4E9004510462B4604
:10841000224600F0FBF8CDE9000122462B46DDE9BB
:10842000000100F0F1F841EC100B03B0F0BD33286F
:1084300006DDB0F5806F42D043EC102B03B0F0BDE9
:10844000A6F213464FF0FF30F0400242F4D040084D
:108450000242D5D04FF0804325EA000043FA06F6E9
:1084600046EA0005CCE723F00040104310EE107AF6
:10847000E2D0C3F313000743784207431548590C71
:108480003F0B490407F4002700EBC40047EA01034F
:10849000D0E90067194610463B46324600F0B6F870
:1084A000CDE900013B463246DDE9000100F0ACF8C1
:1084B00021F0004343EAC47141EC100BBEE710EE1B
:1084C000100A194600F0A2F841EC100BB6E700BF05
:1084D000FFFF0F00089E0D0053EC102B70B5C3F387
:1084E0000A541946054614BB23F0004111432AD013
:1084F00019460022384B394E10EE100A00F038FAB7
:10850000B54202460B461FDBC1F30A54363C2C44ED
:1085100040F2FE7084421FDC002C2DDD21F0FF4173
:1085200021F4E00141EA045343EC102B70BD40F20A
:10853000FF708442EBD110EE100A194600F066F885
:1085400041EC100B70BD70BD1FA3D3E9002300F0F8
:108550000FFA41EC100B70BD43EC112B9FED1C0B7F
:1085600000F040F81AA3D3E9002351EC100B00F0FF
:10857000FFF941EC100B70BD14F1350F13DA4CF21A
:1085800050318D4243EC112BE8DC9FED0F0B00F0D6
:1085900029F80DA3D3E9002351EC100B00F0E8F902
:1085A00041EC100B70BD21F0FF4121F4E0013634A5
:1085B00041EA0453104619460022094B00F0D8F94D
:1085C00041EC100B70BD00BF59F3F8C21F6EA5013E
:1085D0009C7500883CE4377E00005043B03CFFFFB0
:1085E0000000903C53EC102B11EE900A23F0004158
:1085F00000F0004041EA000343EC102B704700BF3D
:1086000081F0004102E000BF83F0004330B54FEA43
:1086100041044FEA430594EA050F08BF90EA020FB0
:108620001FBF54EA000C55EA020C7FEA645C7FEA43
:10863000655C00F0E2804FEA5454D4EB5555B8BF66
:108640006D420CDD2C4480EA020281EA030382EAD7
:10865000000083EA010180EA020281EA0303362D69
:1086600088BF30BD11F0004F4FEA01314FF4801C3C
:108670004CEA113102D0404261EB410113F0004F4E
:108680004FEA03334CEA133302D0524263EB430305
:1086900094EA050F00F0A780A4F10104D5F1200EA3
:1086A0000DDB02FA0EFC22FA05F2801841F10001FE
:1086B00003FA0EF2801843FA05F359410EE0A5F1D2
:1086C00020050EF1200E012A03FA0EFC28BF4CF003
:1086D000020C43FA05F3C01851EBE37101F00045B9
:1086E00007D54FF0000EDCF1000C7EEB00006EEBC6
:1086F0000101B1F5801F1BD3B1F5001F0CD3490850
:108700005FEA30004FEA3C0C04F101044FEA4452A6
:1087100012F5800F80F09A80BCF1004F08BF5FEA2D
:10872000500C50F1000041EB045141EA050130BD0D
:108730005FEA4C0C404141EB010111F4801FA4F1B0
:108740000104E9D191F0000F04BF01460020B1FA05
:1087500081F308BF2033A3F10B03B3F120020CDA3D
:108760000C3208DD02F1140CC2F10C0201FA0CF01B
:1087700021FA02F10CE002F11402D8BFC2F1200C80
:1087800001FA02F120FA0CFCDCBF41EA0C01904036
:10879000E41AA2BF01EB0451294330BD6FEA04047F
:1087A0001F3C1CDA0C340EDC04F11404C4F120026A
:1087B00020FA04F001FA02F340EA030021FA04F37C
:1087C00045EA030130BDC4F10C04C4F1200220FAD3
:1087D00002F001FA04F340EA0300294630BD21FA11
:1087E00004F0294630BD94F0000F83F4801306BFD7
:1087F00081F480110134013D4EE77FEA645C18BFCB
:108800007FEA655C29D094EA050F08BF90EA020F61
:1088100005D054EA000C04BF1946104630BD91EA59
:10882000030F1EBF0021002030BD5FEA545C05D15C
:108830004000494128BF41F0004130BD14F580049B
:108840003CBF01F5801130BD01F0004545F0FE410F
:1088500041F470014FF0000030BD7FEA645C1ABF44
:10886000194610467FEA655C1CBF0B46024650EA7B
:10887000013406BF52EA033591EA030F41F40021A7
:1088800030BD00BF90F0000F04BF0021704730B52D
:108890004FF4806404F132044FF000054FF0000102
:1088A00050E700BF90F0000F04BF0021704730B5C3
:1088B0004FF4806404F1320410F0004548BF404298
:1088C0004FF000013EE700BF42004FEAE2014FEAED
:1088D00031014FEA02701FBF12F07F4393F07F4FC8
:1088E00081F06051704792F0000F14BF93F07F4FFA
:1088F000704730B54FF4607401F0004521F000413D
:1089000020E700BF50EA010208BF704730B54FF0C2
:1089100000050AE050EA010208BF704730B511F0C7
:10892000004502D5404261EB41014FF4806404F1FF
:1089300032045FEA915C3FF4DCAE4FF003025FEA81
:10894000DC0C18BF03325FEADC0C18BF033202EB09
:10895000DC02C2F1200300FA03FC20FA02F001FA63
:1089600003FE40EA0E0021FA02F11444C1E600BF02
:1089700070B54FF0FF0C4CF4E06C1CEA11541DBFB5
:108980001CEA135594EA0C0F95EA0C0F00F0DEF880
:108990002C4481EA030621EA4C5123EA4C5350EA65
:1089A000013518BF52EA033541F4801143F48013B6
:1089B00038D0A0FB02CE4FF00005E1FB02E506F047
:1089C0000042E0FB03E54FF00006E1FB03569CF09C
:1089D000000F18BF4EF0010EA4F1FF04B6F5007FA2
:1089E00064F5407404D25FEA4E0E6D4146EB060614
:1089F00042EAC62141EA55514FEAC52040EA5E509D
:108A00004FEACE2EB4F1FD0C88BFBCF5E06F1ED846
:108A1000BEF1004F08BF5FEA500E50F1000041EB7D
:108A2000045170BD06F0004646EA010140EA02002A
:108A300081EA0301B4EB5C04C2BFD4EB0C0541EA4C
:108A4000045170BD41F480114FF0000E013C00F361
:108A5000AB8014F1360FDEBF002001F0004170BD85
:108A6000C4F10004203C35DA0C341BDC04F114049E
:108A7000C4F1200500FA05F320FA04F001FA05F22A
:108A800040EA020001F0004221F0004110EBD370F7
:108A900021FA04F642EB06015EEA430E08BF20EA23
:108AA000D37070BDC4F10C04C4F1200500FA04F3C6
:108AB00020FA05F001FA04F240EA020001F0004158
:108AC00010EBD37041F100015EEA430E08BF20EACB
:108AD000D37070BDC4F1200500FA05F24EEA020E13
:108AE00020FA04F301FA05F243EA020321FA04F042
:108AF00001F0004121FA04F220EA020000EBD370F9
:108B00005EEA430E08BF20EAD37070BD94F0000FF8
:108B10000FD101F00046400041EB010111F4801F2C
:108B200008BF013CF7D041EA060195F0000F18BFDD
:108B3000704703F00046520043EB030313F4801F19
:108B400008BF013DF7D043EA0603704794EA0C0FD3
:108B50000CEA135518BF95EA0C0F0CD050EA4106E9
:108B600018BF52EA4306D1D181EA030101F0004166
:108B70004FF0000070BD50EA410606BF104619468E
:108B800052EA430619D094EA0C0F02D150EA01369A
:108B900013D195EA0C0F05D152EA03361CBF1046DB
:108BA00019460AD181EA030101F0004141F0FE417A
:108BB00041F470014FF0000070BD41F0FE4141F4FE
:108BC000780170BD70B54FF0FF0C4CF4E06C1CEAFE
:108BD00011541DBF1CEA135594EA0C0F95EA0C0FB3
:108BE00000F0A7F8A4EB050481EA030E52EA03356E
:108BF0004FEA013100F088804FEA03334FF080558F
:108C000045EA131343EA12634FEA022245EA1115BB
:108C100045EA10654FEA00260EF000419D4208BF6C
:108C2000964244F1FD0404F5407402D25B084FEA19
:108C30003202B61A65EB03055B084FEA32024FF4C5
:108C400080104FF4002CB6EB020E75EB030E22BF22
:108C5000B61A754640EA0C005B084FEA3202B6EBE2
:108C6000020E75EB030E22BFB61A754640EA5C0091
:108C70005B084FEA3202B6EB020E75EB030E22BF21
:108C8000B61A754640EA9C005B084FEA3202B6EB22
:108C9000020E75EB030E22BFB61A754640EADC00E1
:108CA00055EA060E18D04FEA051545EA16754FEA43
:108CB00006164FEAC30343EA52734FEAC2025FEA61
:108CC0001C1CC0D111F4801F0BD141EA00014FF0F0
:108CD00000004FF0004CB6E711F4801F04BF0143C1
:108CE0000020B4F1FD0C88BFBCF5E06F3FF6AFAEDD
:108CF000B5EB030C04BFB6EB020C5FEA500C50F16D
:108D0000000041EB045170BD0EF0004E4EEA1131EF
:108D100014EB5C04C2BFD4EB0C0541EA045170BDF6
:108D200041F480114FF0000E013C90E645EA060E3A
:108D30008DE60CEA135594EA0C0F08BF95EA0C0F68
:108D40003FF43BAF94EA0C0F0AD150EA01347FF4B0
:108D500034AF95EA0C0F7FF425AF104619462CE787
:108D600095EA0C0F06D152EA03353FF4FDAE1046EA
:108D7000194622E750EA410618BF52EA43067FF43B
:108D8000C5AE50EA41047FF40DAF52EA43057FF4CB
:108D9000EBAE12E74FF0FF3C06E000BF4FF0010CD6
:108DA00002E000BF4FF0010C4DF804CD4FEA410C3A
:108DB0007FEA6C5C4FEA430C18BF7FEA6C5C1BD007
:108DC00001B050EA410C0CBF52EA430C91EA030F88
:108DD00002BF90EA020F0020704710F1000F91EAE5
:108DE000030F58BF994208BF90422CBFD8176FEAB3
:108DF000E37040F0010070474FEA410C7FEA6C5C81
:108E000002D150EA013C07D14FEA430C7FEA6C5C87
:108E1000D6D152EA033CD3D05DF8040B704700BFB3
:108E20008446104662468C461946634600E000BF01
:108E300001B5FFF7B7FF002848BF10F1000F01BDD3
:108E40004DF808EDFFF7F4FF0CBF012000205DF89E
:108E500008FB00BF4DF808EDFFF7EAFF34BF012023
:108E600000205DF808FB00BF4DF808EDFFF7E0FFBC
:108E700094BF012000205DF808FB00BF4DF808ED0D
:108E8000FFF7CEFF94BF012000205DF808FB00BF74
:108E90004DF808EDFFF7C4FF34BF012000205DF856
:108EA00008FB00BF4FEA410C7FEA6C5C02D150EA3C
:108EB000013C0AD14FEA430C7FEA6C5C02D152EAD2
:108EC000033C02D14FF0000070474FF001007047A3
:108ED0004FEA4102B2F1E04324BFB3F5001CDCF1DC
:108EE000FE5C0DD901F0004C4FEAC0024CEA507014
:108EF000B2F1004F40EB830008BF20F00100704743
:108F000011F0804F21D113F13872BCBF01F0004045
:108F1000704741F480114FEA5252C2F11802C2F177
:108F2000200C10FA0CF320FA02F018BF40F00100F8
:108F30004FEAC1234FEAD32303FA0CFC40EA0C00AA
:108F400023FA02F34FEA4303CCE77FEA625307D1E7
:108F500050EA01331EBF4FF0FE4040F4400070471E
:108F600001F0004040F0FE4040F40000704700BFB8
:108F700080F0004002E000BF81F0004142001FBFCE
:108F80005FEA410392EA030F7FEA226C7FEA236CD7
:108F90006AD04FEA1262D2EB1363C1BFD2184140CC
:108FA00048404140B8BF5B42192B88BF704710F062
:108FB000004F40F4000020F07F4018BF404211F005
:108FC000004F41F4000121F07F4118BF494292EA6D
:108FD000030F3FD0A2F1010241FA03FC10EB0C0099
:108FE000C3F1200301FA03F100F0004302D5494226
:108FF00060EB4000B0F5000F13D3B0F1807F06D3D3
:1090000040084FEA310102F10102FE2A51D2B1F1CA
:10901000004F40EBC25008BF20F0010040EA0300BF
:109020007047490040EB000010F4000FA2F101026C
:10903000EDD1B0FA80FCACF1080CB2EB0C0200FAF6
:109040000CF0AABF00EBC25052421843BCBFD04044
:109050001843704792F0000F81F4000106BF80F4BE
:1090600000000132013BB5E74FEA41037FEA226C81
:1090700018BF7FEA236C21D092EA030F04D092F04C
:10908000000F08BF0846704790EA010F1CBF002080
:10909000704712F07F4F04D1400028BF40F00040DD
:1090A000704712F100723CBF00F50000704700F0FD
:1090B000004343F0FE4040F4000070477FEA226224
:1090C00016BF08467FEA23630146420206BF5FEAF5
:1090D000412390EA010F40F4800070474FF00003F5
:1090E00004E000BF10F0004348BF40425FEA000CBC
:1090F00008BF704743F0964301464FF000001CE064
:1091000050EA010208BF70474FF000030AE000BFB9
:1091100050EA010208BF704711F0004302D54042F7
:1091200061EB41015FEA010C02BF84460146002069
:1091300043F0B64308BFA3F18053A3F50003BCFA84
:109140008CF2083AA3EBC25310DB01FA02FC634431
:1091500000FA02FCC2F12002BCF1004F20FA02F238
:1091600043EB020008BF20F00100704702F120022B
:1091700001FA02FCC2F1200250EA4C0021FA02F28C
:1091800043EB020008BF20EADC7070477BB972B97C
:109190000029BEBF00204FF0004106E008BF0028B4
:1091A0001CBF6FF000414FF0FF3000F0B1B9ADF1DE
:1091B000080C6DE904CE002909DB002B1ADB00F056
:1091C00035F8DDF804E0DDE9022304B070474042E1
:1091D00061EB4101002B1BDB00F028F8DDF804E017
:1091E000DDE9022304B0404261EB4101524263EBEE
:1091F00043037047524263EB430300F017F8DDF876
:1092000004E0DDE9022304B0404261EB4101704714
:10921000524263EB430300F009F8DDF804E0DDE9B6
:10922000022304B0524263EB430370472DE9F04739
:109230008C460E460446089D002B50D18A421746A4
:109240006CD9B2FA82FEBEF1000F0BD0CEF1200431
:1092500020FA04F401FA0EF644EA060C02FA0EF7BC
:1092600000FA0EF44FEA1749220CBCFBF9F01FFA82
:1092700087F809FB10C642EA064600FB08F3B34232
:1092800009D9F61900F1FF3280F02281B34240F291
:109290001F8102383E44F61AA2B2B6FBF9F309FB6D
:1092A000136642EA064403FB08F8A04509D9E4190D
:1092B00003F1FF3280F00A81A04540F20781023BB2
:1092C0003C44C8EB040443EA00400021002D62D076
:1092D00024FA0EF400232C606B60BDE8F0878B420B
:1092E00007D9002D55D0002185E841000846BDE88A
:1092F000F087B3FA83F1002940F09080B34202D3A3
:10930000824200F2F880841A66EB03060120B4461C
:10931000002D40D085E81010BDE8F08712B9012774
:10932000B7FBF2F7B7FA87FEBEF1000F35D1F31B9A
:109330004FEA17481FFA87FC0121B3FBF8F0220C13
:1093400008FB103642EA06460CFB00F3B34207D98D
:10935000F61900F1FF3202D2B34200F2CE8010467D
:10936000F61AA2B2B6FBF8F308FB136642EA06440B
:109370000CFB03FCA44507D9E41903F1FF3202D228
:10938000A44500F2B5801346CCEB040443EA004048
:109390009CE729462846BDE8F087CEF1200106FA71
:1093A0000EF307FA0EF720FA01F94FEA1748CE40FC
:1093B00049EA0309B6FBF8FA4FEA194408FB1A66B2
:1093C0001FFA87FC44EA06430AFB0CF29A4200FAB1
:1093D0000EF40AD9DB190AF1FF3180F087809A4236
:1093E00040F28480AAF1020A3B449B1A1FFA89F9D1
:1093F000B3FBF8F108FB113349EA034301FB0CF618
:109400009E4207D9DB1901F1FF326BD29E4269D926
:1094100002393B449B1B41EA0A418EE7C1F1200E11
:1094200022FA0EF48B40234320FA0EF706FA01F4D9
:109430004FEA134C26FA0EF63C43B6FBFCF9270C18
:109440000CFB19661FFA83F847EA064609FB08F782
:10945000B74202FA01F200FA01FA08D9F61809F146
:10946000FF3041D2B7423FD9A9F102091E44F61B91
:10947000A0B2B6FBFCF40CFB146640EA064704FB02
:1094800008F8B84507D9FF1804F1FF3028D2B845CD
:1094900026D9023C1F4444EA0940C8EB0707A0FB59
:1094A00002894F4544464E4614D329D065B3BAEBE2
:1094B000040367EB060707FA0EFECB40CF404EEAE7
:1094C000030385E888000021BDE8F0871346F8E62D
:1094D0001046E0E6B8EB020469EB03060138E5E765
:1094E0000446D8E7114695E78146C0E78A467CE7FF
:1094F000023B3C4448E708460AE702383E442FE76F
:10950000C245E7D33E46D1E72946BDE8F08700BF14
:10951000704700BF10B5054C13462CB10A460146F2
:109520000220AFF3008010BD204610BD00000000F7
:1095300010B5431E0A44914204D011F8014B03F8C0
:10954000014FF8E710BD02440346934202D003F8EE
:10955000011BFAE77047000038B5124B1C68A36B7B
:109560000546D3B91820FCF793FA43F20E33A063F3
:1095700003804AF6CD33438041F2342383804EF298
:109580006D63C3804DF6EC630381052343810B2398
:10959000838101220023C0E90423A36B00221D6103
:1095A0005A6138BD1CE40320024B0146186800F0E4
:1095B00003B800BF1CE4032070B5064608460C46FD
:1095C00000F00DF8451C29463046FCF789FA06469E
:1095D00018B12A462146FFF7ABFF304670BD03465F
:1095E00013F8012B002AFBD1181A0138704700002C
:1095F00021400D005D400D0089400D008D400D00A3
:10960000000000000000000000000000B9400D0054
:10961000CD400D00416972205175616C69747920EB
:1096200053656E736F722072656164792E004169B3
:1096300072205175616C6974792053656E736F7215
:10964000204552524F5221005061727469636C651B
:1096500000416972205175616C697479004D6F6EBB
:1096600069746F7200424D453238302053656E7315
:109670006F722072656164792E00424D4532383038
:109680002053656E736F72204552524F5221004E27
:109690006F6E650044616E67657200486967682097
:1096A000506F6C6C7574696F6E004C6F7720506FE3
:1096B0006C6C7574696F6E004672657368204169E1
:1096C00072004C504F3A20256400526174696F3A21
:1096D000202566252500436F6E63656E7472617484
:1096E000696F6E3A202566207063732F4C005465B5
:1096F0006D703A2000430048756D69646974793A69
:10970000200050726573733A200020685061004455
:109710007573743A200074656D700068756D6964C6
:10972000697479007072657373757265006169722E
:109730002D7175616C69747900647573742D6C702A
:109740006F00256C7500647573742D726174696F98
:1097500000647573742D636F6E63656E74726174EB
:10976000696F6E00656E762D76616C73004169726B
:10977000205175616C6974793A2025730054656DC8
:10978000703A2025640050726573737572653A20D3
:1097900025640048756D69646974793A2025640010
:1097A00002000000030000000100000000000000B3
:1097B000000000000000000065480D00646566615F
:1097C000756C7420004D5342004C5342003C535082
:1097D0004953657474696E67732064656661756C5E
:1097E000743E003C53504953657474696E6773202E
:1097F0002573256C75202573204D4F444525643E07
:1098000000000000000000000000005F00000000F9
:1098100000000007000700000000147F147F140000
:109820000000242A7F2A120000002313086462002B
:1098300000003649552250000000000503000000DA
:1098400000001C2241000000000041221C0000001A
:109850000000082A1C2A0800000008083E0808002A
:109860000000A060000000000000080808080800D0
:1098700000006060000000000000201008040200EA
:1098800000003E5149453E00000000427F4000007C
:109890000000625149494600000022414949360012
:1098A00000001814127F10000000274545453900BC
:1098B00000003C4A494930000000017109050300DD
:1098C00000003649494936000000064949291E0072
:1098D0000000003636000000000000AC6C00000004
:1098E0000000081422410000000014141414140095
:1098F0000000412214080000000002015109060086
:109900000000324979413E0000007E0909097E00CD
:1099100000007F494949360000003E414141220094
:1099200000007F4141221C0000007F49494941005D
:1099300000007F090909010000003E414151720009
:1099400000007F0808087F000000417F4100000000
:1099500000002040413F010000007F081422410028
:1099600000007F404040400000007F020C027F006A
:1099700000007F0408107F0000003E4141413E008E
:1099800000007F090909060000003E4151215E00E8
:1099900000007F0919294600000026494949320084
:1099A000000001017F01010000003F4040403F00F6
:1099B00000001F2040201F0000003F4038403F00B3
:1099C000000063140814630000000304780403001B
:1099D000000061514945430000007F414100000003
:1099E0000000020408102000000041417F00000038
:1099F00000000402010204000000808080808000DA
:109A000000000102040000000000205454547800BB
:109A100000007F48444438000000384444280000D7
:109A20000000384444487F00000038545454180063
:109A30000000087E09020000000018A4A4A47C0015
:109A400000007F08040478000000007D0000000092
:109A5000000080847D00000000007F10284400008A
:109A60000000417F4000000000007C0418047800E2
:109A700000007C08047C00000000384444380000EA
:109A80000000FC24241800000000182424FC00001E
:109A90000000007C0804000000004854542400002A
:109AA0000000047F4400000000003C40407C0000B7
:109AB00000001C2040201C0000003C4030403C00C6
:109AC000000044281028440000001CA0A07C0000D6
:109AD00000004464544C440000000836410000007B
